{
  "abi": [
    {
      "inputs": [
        {
          "internalType": "uint256",
          "name": "_fee",
          "type": "uint256"
        },
        {
          "internalType": "uint256",
          "name": "_checkInterval",
          "type": "uint256"
        }
      ],
      "stateMutability": "nonpayable",
      "type": "constructor"
    },
    {
      "inputs": [],
      "name": "checkInterval",
      "outputs": [
        {
          "internalType": "uint256",
          "name": "",
          "type": "uint256"
        }
      ],
      "stateMutability": "view",
      "type": "function"
    },
    {
      "inputs": [
        {
          "internalType": "bytes",
          "name": "",
          "type": "bytes"
        }
      ],
      "name": "checkUpkeep",
      "outputs": [
        {
          "internalType": "bool",
          "name": "upkeepNeeded",
          "type": "bool"
        },
        {
          "internalType": "bytes",
          "name": "",
          "type": "bytes"
        }
      ],
      "stateMutability": "view",
      "type": "function"
    },
    {
      "inputs": [
        {
          "internalType": "uint256",
          "name": "_goalAmount",
          "type": "uint256"
        },
        {
          "internalType": "string",
          "name": "_title",
          "type": "string"
        },
        {
          "internalType": "string",
          "name": "_slogan",
          "type": "string"
        },
        {
          "internalType": "string",
          "name": "_websiteUrl",
          "type": "string"
        },
        {
          "internalType": "string",
          "name": "_videoUrl",
          "type": "string"
        },
        {
          "internalType": "string",
          "name": "_thumbnailUrl",
          "type": "string"
        },
        {
          "internalType": "string",
          "name": "_description",
          "type": "string"
        },
        {
          "internalType": "uint256",
          "name": "_endDate",
          "type": "uint256"
        }
      ],
      "name": "createProject",
      "outputs": [],
      "stateMutability": "payable",
      "type": "function"
    },
    {
      "inputs": [],
      "name": "fee",
      "outputs": [
        {
          "internalType": "uint256",
          "name": "",
          "type": "uint256"
        }
      ],
      "stateMutability": "view",
      "type": "function"
    },
    {
      "inputs": [
        {
          "internalType": "uint256",
          "name": "_projectId",
          "type": "uint256"
        }
      ],
      "name": "fund",
      "outputs": [],
      "stateMutability": "payable",
      "type": "function"
    },
    {
      "inputs": [
        {
          "internalType": "uint256",
          "name": "_projectId",
          "type": "uint256"
        }
      ],
      "name": "getInvestedFunds",
      "outputs": [
        {
          "internalType": "uint256",
          "name": "balance",
          "type": "uint256"
        }
      ],
      "stateMutability": "view",
      "type": "function"
    },
    {
      "inputs": [
        {
          "internalType": "uint256",
          "name": "_id",
          "type": "uint256"
        }
      ],
      "name": "getProject",
      "outputs": [
        {
          "components": [
            {
              "internalType": "bool",
              "name": "initialized",
              "type": "bool"
            },
            {
              "internalType": "address",
              "name": "owner",
              "type": "address"
            },
            {
              "internalType": "uint256",
              "name": "id",
              "type": "uint256"
            },
            {
              "internalType": "string",
              "name": "title",
              "type": "string"
            },
            {
              "internalType": "string",
              "name": "slogan",
              "type": "string"
            },
            {
              "internalType": "string",
              "name": "description",
              "type": "string"
            },
            {
              "internalType": "string",
              "name": "websiteUrl",
              "type": "string"
            },
            {
              "internalType": "string",
              "name": "thumbnailUrl",
              "type": "string"
            },
            {
              "internalType": "string",
              "name": "videoUrl",
              "type": "string"
            },
            {
              "internalType": "uint256",
              "name": "currentAmount",
              "type": "uint256"
            },
            {
              "internalType": "uint256",
              "name": "goalAmount",
              "type": "uint256"
            },
            {
              "internalType": "uint256",
              "name": "startDate",
              "type": "uint256"
            },
            {
              "internalType": "uint256",
              "name": "endDate",
              "type": "uint256"
            },
            {
              "internalType": "enum EtherCrowd.Status",
              "name": "status",
              "type": "uint8"
            },
            {
              "internalType": "address[]",
              "name": "contributors",
              "type": "address[]"
            }
          ],
          "internalType": "struct EtherCrowd.Project",
          "name": "",
          "type": "tuple"
        }
      ],
      "stateMutability": "view",
      "type": "function"
    },
    {
      "inputs": [],
      "name": "getProjects",
      "outputs": [
        {
          "components": [
            {
              "internalType": "bool",
              "name": "initialized",
              "type": "bool"
            },
            {
              "internalType": "address",
              "name": "owner",
              "type": "address"
            },
            {
              "internalType": "uint256",
              "name": "id",
              "type": "uint256"
            },
            {
              "internalType": "string",
              "name": "title",
              "type": "string"
            },
            {
              "internalType": "string",
              "name": "slogan",
              "type": "string"
            },
            {
              "internalType": "string",
              "name": "description",
              "type": "string"
            },
            {
              "internalType": "string",
              "name": "websiteUrl",
              "type": "string"
            },
            {
              "internalType": "string",
              "name": "thumbnailUrl",
              "type": "string"
            },
            {
              "internalType": "string",
              "name": "videoUrl",
              "type": "string"
            },
            {
              "internalType": "uint256",
              "name": "currentAmount",
              "type": "uint256"
            },
            {
              "internalType": "uint256",
              "name": "goalAmount",
              "type": "uint256"
            },
            {
              "internalType": "uint256",
              "name": "startDate",
              "type": "uint256"
            },
            {
              "internalType": "uint256",
              "name": "endDate",
              "type": "uint256"
            },
            {
              "internalType": "enum EtherCrowd.Status",
              "name": "status",
              "type": "uint8"
            },
            {
              "internalType": "address[]",
              "name": "contributors",
              "type": "address[]"
            }
          ],
          "internalType": "struct EtherCrowd.Project[]",
          "name": "",
          "type": "tuple[]"
        }
      ],
      "stateMutability": "view",
      "type": "function"
    },
    {
      "inputs": [],
      "name": "lastCheck",
      "outputs": [
        {
          "internalType": "uint256",
          "name": "",
          "type": "uint256"
        }
      ],
      "stateMutability": "view",
      "type": "function"
    },
    {
      "inputs": [],
      "name": "nbOfProjects",
      "outputs": [
        {
          "internalType": "uint256",
          "name": "",
          "type": "uint256"
        }
      ],
      "stateMutability": "view",
      "type": "function"
    },
    {
      "inputs": [
        {
          "internalType": "bytes",
          "name": "",
          "type": "bytes"
        }
      ],
      "name": "performUpkeep",
      "outputs": [],
      "stateMutability": "nonpayable",
      "type": "function"
    }
  ],
  "bytecode": "608060405234801561001057600080fd5b50604051611e0f380380611e0f83398101604081905261002f91610057565b6000808055600180546001600160a01b0319163317905560079290925560025560035561007b565b6000806040838503121561006a57600080fd5b505080516020909101519092909150565b611d858061008a6000396000f3fe60806040526004361061009c5760003560e01c8063838c29b611610064578063838c29b61461014d578063ca1d209d14610163578063d2eae1b414610176578063dcc601281461018c578063ddca3f43146101ae578063f0f3f2c8146101c457600080fd5b806337ca6fd7146100a15780634585e33b146100b65780635f98dbf2146100d65780636e04ff0d146100ff578063832ac4891461012d575b600080fd5b6100b46100af36600461183c565b6101f1565b005b3480156100c257600080fd5b506100b46100d1366004611946565b610501565b3480156100e257600080fd5b506100ec60005481565b6040519081526020015b60405180910390f35b34801561010b57600080fd5b5061011f61011a366004611946565b610511565b6040516100f6929190611a05565b34801561013957600080fd5b506100ec610148366004611a28565b610530565b34801561015957600080fd5b506100ec60025481565b6100b4610171366004611a28565b61057c565b34801561018257600080fd5b506100ec60035481565b34801561019857600080fd5b506101a16106a7565b6040516100f69190611bf1565b3480156101ba57600080fd5b506100ec60075481565b3480156101d057600080fd5b506101e46101df366004611a28565b610bbb565b6040516100f69190611c53565b600088116102555760405162461bcd60e51b815260206004820152602660248201527f476f616c20616d6f756e74206d7573742062652067726561746572207468616e604482015265103d32b9379760d11b60648201526084015b60405180910390fd5b600081116102b15760405162461bcd60e51b8152602060048201526024808201527f456e6420646174652068617320746f206265206166746572207374617274206460448201526330ba329760e11b606482015260840161024c565b60075434146102f45760405162461bcd60e51b815260206004820152600f60248201526e496e636f72726563742076616c756560881b604482015260640161024c565b6060604051806101e00160405280600115158152602001336001600160a01b031681526020016000548152602001898152602001888152602001848152602001878152602001858152602001868152602001600081526020018a815260200142815260200183426103659190611c83565b81526020016001815260209081018390526000805481526004825260409081902083518154858501516001600160a01b031661010002610100600160a81b0319921515929092166001600160a81b0319909116171781559083015160018201556060830151805191926103e092600285019290910190611619565b50608082015180516103fc916003840191602090910190611619565b5060a08201518051610418916004840191602090910190611619565b5060c08201518051610434916005840191602090910190611619565b5060e08201518051610450916006840191602090910190611619565b50610100820151805161046d916007840191602090910190611619565b5061012082015160088201556101408201516009820155610160820151600a820155610180820151600b8201556101a0820151600c8201805460ff191660018360028111156104be576104be611a41565b02179055506101c082015180516104df91600d84019160209091019061169d565b5050600080549150806104f183611c9b565b9190505550505050505050505050565b4260035561050d611075565b5050565b60006060600254600354426105269190611cb6565b1191509250929050565b60008181526004602052604081205460ff1661055e5760405162461bcd60e51b815260040161024c90611ccd565b50600090815260056020908152604080832033845290915290205490565b600034116105bd5760405162461bcd60e51b815260206004820152600e60248201526d2737903b30b63ab29039b2b73a1760911b604482015260640161024c565b60008181526004602052604090205460ff166105eb5760405162461bcd60e51b815260040161024c90611ccd565b60016000828152600460205260409020600c015460ff16600281111561061357610613611a41565b146106585760405162461bcd60e51b815260206004820152601560248201527450726f6a656374206973206e6f742061637469766560581b604482015260640161024c565b33600081815260066020908152604080832080546001810182559084528284200185905584835260058252808320938352929052908120805434929061069f908490611c83565b909155505050565b60606000805467ffffffffffffffff8111156106c5576106c5611799565b6040519080825280602002602001820160405280156106fe57816020015b6106eb6116f2565b8152602001906001900390816106e35790505b50905060005b600054811015610bb55760008181526004602090815260409182902082516101e081018452815460ff81161515825261010090046001600160a01b03169281019290925260018101549282019290925260028201805491929160608401919061076c90611d04565b80601f016020809104026020016040519081016040528092919081815260200182805461079890611d04565b80156107e55780601f106107ba576101008083540402835291602001916107e5565b820191906000526020600020905b8154815290600101906020018083116107c857829003601f168201915b505050505081526020016003820180546107fe90611d04565b80601f016020809104026020016040519081016040528092919081815260200182805461082a90611d04565b80156108775780601f1061084c57610100808354040283529160200191610877565b820191906000526020600020905b81548152906001019060200180831161085a57829003601f168201915b5050505050815260200160048201805461089090611d04565b80601f01602080910402602001604051908101604052809291908181526020018280546108bc90611d04565b80156109095780601f106108de57610100808354040283529160200191610909565b820191906000526020600020905b8154815290600101906020018083116108ec57829003601f168201915b5050505050815260200160058201805461092290611d04565b80601f016020809104026020016040519081016040528092919081815260200182805461094e90611d04565b801561099b5780601f106109705761010080835404028352916020019161099b565b820191906000526020600020905b81548152906001019060200180831161097e57829003601f168201915b505050505081526020016006820180546109b490611d04565b80601f01602080910402602001604051908101604052809291908181526020018280546109e090611d04565b8015610a2d5780601f10610a0257610100808354040283529160200191610a2d565b820191906000526020600020905b815481529060010190602001808311610a1057829003601f168201915b50505050508152602001600782018054610a4690611d04565b80601f0160208091040260200160405190810160405280929190818152602001828054610a7290611d04565b8015610abf5780601f10610a9457610100808354040283529160200191610abf565b820191906000526020600020905b815481529060010190602001808311610aa257829003601f168201915b50505091835250506008820154602082015260098201546040820152600a8201546060820152600b8201546080820152600c82015460a09091019060ff166002811115610b0e57610b0e611a41565b6002811115610b1f57610b1f611a41565b8152602001600d8201805480602002602001604051908101604052809291908181526020018280548015610b7c57602002820191906000526020600020905b81546001600160a01b03168152600190910190602001808311610b5e575b505050505081525050828281518110610b9757610b97611d39565b60200260200101819052508080610bad90611c9b565b915050610704565b50919050565b610bc36116f2565b600082815260046020526040902054829060ff161515600114610bf85760405162461bcd60e51b815260040161024c90611ccd565b600083815260046020908152604080832081516101e081018352815460ff81161515825261010090046001600160a01b031693810193909352600181015491830191909152600281018054606084019190610c5290611d04565b80601f0160208091040260200160405190810160405280929190818152602001828054610c7e90611d04565b8015610ccb5780601f10610ca057610100808354040283529160200191610ccb565b820191906000526020600020905b815481529060010190602001808311610cae57829003601f168201915b50505050508152602001600382018054610ce490611d04565b80601f0160208091040260200160405190810160405280929190818152602001828054610d1090611d04565b8015610d5d5780601f10610d3257610100808354040283529160200191610d5d565b820191906000526020600020905b815481529060010190602001808311610d4057829003601f168201915b50505050508152602001600482018054610d7690611d04565b80601f0160208091040260200160405190810160405280929190818152602001828054610da290611d04565b8015610def5780601f10610dc457610100808354040283529160200191610def565b820191906000526020600020905b815481529060010190602001808311610dd257829003601f168201915b50505050508152602001600582018054610e0890611d04565b80601f0160208091040260200160405190810160405280929190818152602001828054610e3490611d04565b8015610e815780601f10610e5657610100808354040283529160200191610e81565b820191906000526020600020905b815481529060010190602001808311610e6457829003601f168201915b50505050508152602001600682018054610e9a90611d04565b80601f0160208091040260200160405190810160405280929190818152602001828054610ec690611d04565b8015610f135780601f10610ee857610100808354040283529160200191610f13565b820191906000526020600020905b815481529060010190602001808311610ef657829003601f168201915b50505050508152602001600782018054610f2c90611d04565b80601f0160208091040260200160405190810160405280929190818152602001828054610f5890611d04565b8015610fa55780601f10610f7a57610100808354040283529160200191610fa5565b820191906000526020600020905b815481529060010190602001808311610f8857829003601f168201915b50505091835250506008820154602082015260098201546040820152600a8201546060820152600b8201546080820152600c82015460a09091019060ff166002811115610ff457610ff4611a41565b600281111561100557611005611a41565b8152602001600d820180548060200260200160405190810160405280929190818152602001828054801561106257602002820191906000526020600020905b81546001600160a01b03168152600190910190602001808311611044575b5050509190925250919695505050505050565b60005b60005481101561151f57600081815260046020908152604080832081516101e081018352815460ff81161515825261010090046001600160a01b0316938101939093526001810154918301919091526002810180546060840191906110dc90611d04565b80601f016020809104026020016040519081016040528092919081815260200182805461110890611d04565b80156111555780601f1061112a57610100808354040283529160200191611155565b820191906000526020600020905b81548152906001019060200180831161113857829003601f168201915b5050505050815260200160038201805461116e90611d04565b80601f016020809104026020016040519081016040528092919081815260200182805461119a90611d04565b80156111e75780601f106111bc576101008083540402835291602001916111e7565b820191906000526020600020905b8154815290600101906020018083116111ca57829003601f168201915b5050505050815260200160048201805461120090611d04565b80601f016020809104026020016040519081016040528092919081815260200182805461122c90611d04565b80156112795780601f1061124e57610100808354040283529160200191611279565b820191906000526020600020905b81548152906001019060200180831161125c57829003601f168201915b5050505050815260200160058201805461129290611d04565b80601f01602080910402602001604051908101604052809291908181526020018280546112be90611d04565b801561130b5780601f106112e05761010080835404028352916020019161130b565b820191906000526020600020905b8154815290600101906020018083116112ee57829003601f168201915b5050505050815260200160068201805461132490611d04565b80601f016020809104026020016040519081016040528092919081815260200182805461135090611d04565b801561139d5780601f106113725761010080835404028352916020019161139d565b820191906000526020600020905b81548152906001019060200180831161138057829003601f168201915b505050505081526020016007820180546113b690611d04565b80601f01602080910402602001604051908101604052809291908181526020018280546113e290611d04565b801561142f5780601f106114045761010080835404028352916020019161142f565b820191906000526020600020905b81548152906001019060200180831161141257829003601f168201915b50505091835250506008820154602082015260098201546040820152600a8201546060820152600b8201546080820152600c82015460a09091019060ff16600281111561147e5761147e611a41565b600281111561148f5761148f611a41565b8152602001600d82018054806020026020016040519081016040528092919081815260200182805480156114ec57602002820191906000526020600020905b81546001600160a01b031681526001909101906020018083116114ce575b5050505050815250509050806101800151421061150c5761150c81611522565b508061151781611c9b565b915050611078565b50565b806101400151816101200151106115755780602001516001600160a01b03166108fc8261012001519081150290604051600060405180830381858888f1935050505015801561050d573d6000803e3d6000fd5b61151f8160005b816101c001515181101561050d576000826101c0015182815181106115a3576115a3611d39565b6020908102919091018101516040808601516000908152600584528181206001600160a01b038416808352945281812054915192945090929183156108fc0291849190818181858888f19350505050158015611603573d6000803e3d6000fd5b505050808061161190611c9b565b91505061157c565b82805461162590611d04565b90600052602060002090601f016020900481019282611647576000855561168d565b82601f1061166057805160ff191683800117855561168d565b8280016001018555821561168d579182015b8281111561168d578251825591602001919060010190611672565b50611699929150611784565b5090565b82805482825590600052602060002090810192821561168d579160200282015b8281111561168d57825182546001600160a01b0319166001600160a01b039091161782556020909201916001909101906116bd565b604051806101e0016040528060001515815260200160006001600160a01b0316815260200160008152602001606081526020016060815260200160608152602001606081526020016060815260200160608152602001600081526020016000815260200160008152602001600081526020016000600281111561177757611777611a41565b8152602001606081525090565b5b808211156116995760008155600101611785565b634e487b7160e01b600052604160045260246000fd5b600082601f8301126117c057600080fd5b813567ffffffffffffffff808211156117db576117db611799565b604051601f8301601f19908116603f0116810190828211818310171561180357611803611799565b8160405283815286602085880101111561181c57600080fd5b836020870160208301376000602085830101528094505050505092915050565b600080600080600080600080610100898b03121561185957600080fd5b88359750602089013567ffffffffffffffff8082111561187857600080fd5b6118848c838d016117af565b985060408b013591508082111561189a57600080fd5b6118a68c838d016117af565b975060608b01359150808211156118bc57600080fd5b6118c88c838d016117af565b965060808b01359150808211156118de57600080fd5b6118ea8c838d016117af565b955060a08b013591508082111561190057600080fd5b61190c8c838d016117af565b945060c08b013591508082111561192257600080fd5b5061192f8b828c016117af565b92505060e089013590509295985092959890939650565b6000806020838503121561195957600080fd5b823567ffffffffffffffff8082111561197157600080fd5b818501915085601f83011261198557600080fd5b81358181111561199457600080fd5b8660208285010111156119a657600080fd5b60209290920196919550909350505050565b6000815180845260005b818110156119de576020818501810151868301820152016119c2565b818111156119f0576000602083870101525b50601f01601f19169290920160200192915050565b8215158152604060208201526000611a2060408301846119b8565b949350505050565b600060208284031215611a3a57600080fd5b5035919050565b634e487b7160e01b600052602160045260246000fd5b60038110611a7557634e487b7160e01b600052602160045260246000fd5b9052565b600081518084526020808501945080840160005b83811015611ab25781516001600160a01b031687529582019590820190600101611a8d565b509495945050505050565b80511515825260006101e06020830151611ae260208601826001600160a01b03169052565b50604083015160408501526060830151816060860152611b04828601826119b8565b91505060808301518482036080860152611b1e82826119b8565b91505060a083015184820360a0860152611b3882826119b8565b91505060c083015184820360c0860152611b5282826119b8565b91505060e083015184820360e0860152611b6c82826119b8565b9150506101008084015185830382870152611b8783826119b8565b61012086810151908801526101408087015190880152610160808701519088015261018080870151908801526101a08087015191945092509050611bcd82870182611a57565b50506101c08084015185830382870152611be78382611a79565b9695505050505050565b6000602080830181845280855180835260408601915060408160051b870101925083870160005b82811015611c4657603f19888603018452611c34858351611abd565b94509285019290850190600101611c18565b5092979650505050505050565b602081526000611c666020830184611abd565b9392505050565b634e487b7160e01b600052601160045260246000fd5b60008219821115611c9657611c96611c6d565b500190565b6000600019821415611caf57611caf611c6d565b5060010190565b600082821015611cc857611cc8611c6d565b500390565b60208082526017908201527f50726f6a65637420646f6573206e6f742065786973742e000000000000000000604082015260600190565b600181811c90821680611d1857607f821691505b60208210811415610bb557634e487b7160e01b600052602260045260246000fd5b634e487b7160e01b600052603260045260246000fdfea26469706673582212203edbe55cb4a10c21e20bac2ab0f4cb6be3a94af0b206a750b6f59f3872f58b0f64736f6c63430008090033",
  "bytecodeSha1": "d75d7c1b784974944dcd8700ecd2374e593036ef",
  "compiler": {
    "evm_version": "istanbul",
    "optimizer": {
      "enabled": true,
      "runs": 200
    },
    "version": "0.8.9+commit.e5eed63a"
  },
  "contractName": "EtherCrowd",
  "language": "Solidity",
  "natspec": {
    "kind": "dev",
    "methods": {
      "fund(uint256)": {
        "notice": "Function fund, fund a crowd, takes a crowdid in parameter"
      },
      "getProject(uint256)": {
        "details": "Gets the project of the given id.",
        "params": {
          "_id": "The id of the project."
        },
        "returns": {
          "_0": "project The project."
        }
      },
      "getProjects()": {
        "details": "Gets all the projects (not_started, active or ended).",
        "returns": {
          "_0": "projects a list of projects."
        }
      }
    },
    "version": 1
  },
  "opcodes": "PUSH1 0x80 PUSH1 0x40 MSTORE PUSH1 0x4 CALLDATASIZE LT PUSH2 0x9C JUMPI PUSH1 0x0 CALLDATALOAD PUSH1 0xE0 SHR DUP1 PUSH4 0x838C29B6 GT PUSH2 0x64 JUMPI DUP1 PUSH4 0x838C29B6 EQ PUSH2 0x14D JUMPI DUP1 PUSH4 0xCA1D209D EQ PUSH2 0x163 JUMPI DUP1 PUSH4 0xD2EAE1B4 EQ PUSH2 0x176 JUMPI DUP1 PUSH4 0xDCC60128 EQ PUSH2 0x18C JUMPI DUP1 PUSH4 0xDDCA3F43 EQ PUSH2 0x1AE JUMPI DUP1 PUSH4 0xF0F3F2C8 EQ PUSH2 0x1C4 JUMPI PUSH1 0x0 DUP1 REVERT JUMPDEST DUP1 PUSH4 0x37CA6FD7 EQ PUSH2 0xA1 JUMPI DUP1 PUSH4 0x4585E33B EQ PUSH2 0xB6 JUMPI DUP1 PUSH4 0x5F98DBF2 EQ PUSH2 0xD6 JUMPI DUP1 PUSH4 0x6E04FF0D EQ PUSH2 0xFF JUMPI DUP1 PUSH4 0x832AC489 EQ PUSH2 0x12D JUMPI JUMPDEST PUSH1 0x0 DUP1 REVERT JUMPDEST PUSH2 0xB4 PUSH2 0xAF CALLDATASIZE PUSH1 0x4 PUSH2 0x183C JUMP JUMPDEST PUSH2 0x1F1 JUMP JUMPDEST STOP JUMPDEST CALLVALUE DUP1 ISZERO PUSH2 0xC2 JUMPI PUSH1 0x0 DUP1 REVERT JUMPDEST POP PUSH2 0xB4 PUSH2 0xD1 CALLDATASIZE PUSH1 0x4 PUSH2 0x1946 JUMP JUMPDEST PUSH2 0x501 JUMP JUMPDEST CALLVALUE DUP1 ISZERO PUSH2 0xE2 JUMPI PUSH1 0x0 DUP1 REVERT JUMPDEST POP PUSH2 0xEC PUSH1 0x0 SLOAD DUP2 JUMP JUMPDEST PUSH1 0x40 MLOAD SWAP1 DUP2 MSTORE PUSH1 0x20 ADD JUMPDEST PUSH1 0x40 MLOAD DUP1 SWAP2 SUB SWAP1 RETURN JUMPDEST CALLVALUE DUP1 ISZERO PUSH2 0x10B JUMPI PUSH1 0x0 DUP1 REVERT JUMPDEST POP PUSH2 0x11F PUSH2 0x11A CALLDATASIZE PUSH1 0x4 PUSH2 0x1946 JUMP JUMPDEST PUSH2 0x511 JUMP JUMPDEST PUSH1 0x40 MLOAD PUSH2 0xF6 SWAP3 SWAP2 SWAP1 PUSH2 0x1A05 JUMP JUMPDEST CALLVALUE DUP1 ISZERO PUSH2 0x139 JUMPI PUSH1 0x0 DUP1 REVERT JUMPDEST POP PUSH2 0xEC PUSH2 0x148 CALLDATASIZE PUSH1 0x4 PUSH2 0x1A28 JUMP JUMPDEST PUSH2 0x530 JUMP JUMPDEST CALLVALUE DUP1 ISZERO PUSH2 0x159 JUMPI PUSH1 0x0 DUP1 REVERT JUMPDEST POP PUSH2 0xEC PUSH1 0x2 SLOAD DUP2 JUMP JUMPDEST PUSH2 0xB4 PUSH2 0x171 CALLDATASIZE PUSH1 0x4 PUSH2 0x1A28 JUMP JUMPDEST PUSH2 0x57C JUMP JUMPDEST CALLVALUE DUP1 ISZERO PUSH2 0x182 JUMPI PUSH1 0x0 DUP1 REVERT JUMPDEST POP PUSH2 0xEC PUSH1 0x3 SLOAD DUP2 JUMP JUMPDEST CALLVALUE DUP1 ISZERO PUSH2 0x198 JUMPI PUSH1 0x0 DUP1 REVERT JUMPDEST POP PUSH2 0x1A1 PUSH2 0x6A7 JUMP JUMPDEST PUSH1 0x40 MLOAD PUSH2 0xF6 SWAP2 SWAP1 PUSH2 0x1BF1 JUMP JUMPDEST CALLVALUE DUP1 ISZERO PUSH2 0x1BA JUMPI PUSH1 0x0 DUP1 REVERT JUMPDEST POP PUSH2 0xEC PUSH1 0x7 SLOAD DUP2 JUMP JUMPDEST CALLVALUE DUP1 ISZERO PUSH2 0x1D0 JUMPI PUSH1 0x0 DUP1 REVERT JUMPDEST POP PUSH2 0x1E4 PUSH2 0x1DF CALLDATASIZE PUSH1 0x4 PUSH2 0x1A28 JUMP JUMPDEST PUSH2 0xBBB JUMP JUMPDEST PUSH1 0x40 MLOAD PUSH2 0xF6 SWAP2 SWAP1 PUSH2 0x1C53 JUMP JUMPDEST PUSH1 0x0 DUP9 GT PUSH2 0x255 JUMPI PUSH1 0x40 MLOAD PUSH3 0x461BCD PUSH1 0xE5 SHL DUP2 MSTORE PUSH1 0x20 PUSH1 0x4 DUP3 ADD MSTORE PUSH1 0x26 PUSH1 0x24 DUP3 ADD MSTORE PUSH32 0x476F616C20616D6F756E74206D7573742062652067726561746572207468616E PUSH1 0x44 DUP3 ADD MSTORE PUSH6 0x103D32B93797 PUSH1 0xD1 SHL PUSH1 0x64 DUP3 ADD MSTORE PUSH1 0x84 ADD JUMPDEST PUSH1 0x40 MLOAD DUP1 SWAP2 SUB SWAP1 REVERT JUMPDEST PUSH1 0x0 DUP2 GT PUSH2 0x2B1 JUMPI PUSH1 0x40 MLOAD PUSH3 0x461BCD PUSH1 0xE5 SHL DUP2 MSTORE PUSH1 0x20 PUSH1 0x4 DUP3 ADD MSTORE PUSH1 0x24 DUP1 DUP3 ADD MSTORE PUSH32 0x456E6420646174652068617320746F2062652061667465722073746172742064 PUSH1 0x44 DUP3 ADD MSTORE PUSH4 0x30BA3297 PUSH1 0xE1 SHL PUSH1 0x64 DUP3 ADD MSTORE PUSH1 0x84 ADD PUSH2 0x24C JUMP JUMPDEST PUSH1 0x7 SLOAD CALLVALUE EQ PUSH2 0x2F4 JUMPI PUSH1 0x40 MLOAD PUSH3 0x461BCD PUSH1 0xE5 SHL DUP2 MSTORE PUSH1 0x20 PUSH1 0x4 DUP3 ADD MSTORE PUSH1 0xF PUSH1 0x24 DUP3 ADD MSTORE PUSH15 0x496E636F72726563742076616C7565 PUSH1 0x88 SHL PUSH1 0x44 DUP3 ADD MSTORE PUSH1 0x64 ADD PUSH2 0x24C JUMP JUMPDEST PUSH1 0x60 PUSH1 0x40 MLOAD DUP1 PUSH2 0x1E0 ADD PUSH1 0x40 MSTORE DUP1 PUSH1 0x1 ISZERO ISZERO DUP2 MSTORE PUSH1 0x20 ADD CALLER PUSH1 0x1 PUSH1 0x1 PUSH1 0xA0 SHL SUB AND DUP2 MSTORE PUSH1 0x20 ADD PUSH1 0x0 SLOAD DUP2 MSTORE PUSH1 0x20 ADD DUP10 DUP2 MSTORE PUSH1 0x20 ADD DUP9 DUP2 MSTORE PUSH1 0x20 ADD DUP5 DUP2 MSTORE PUSH1 0x20 ADD DUP8 DUP2 MSTORE PUSH1 0x20 ADD DUP6 DUP2 MSTORE PUSH1 0x20 ADD DUP7 DUP2 MSTORE PUSH1 0x20 ADD PUSH1 0x0 DUP2 MSTORE PUSH1 0x20 ADD DUP11 DUP2 MSTORE PUSH1 0x20 ADD TIMESTAMP DUP2 MSTORE PUSH1 0x20 ADD DUP4 TIMESTAMP PUSH2 0x365 SWAP2 SWAP1 PUSH2 0x1C83 JUMP JUMPDEST DUP2 MSTORE PUSH1 0x20 ADD PUSH1 0x1 DUP2 MSTORE PUSH1 0x20 SWAP1 DUP2 ADD DUP4 SWAP1 MSTORE PUSH1 0x0 DUP1 SLOAD DUP2 MSTORE PUSH1 0x4 DUP3 MSTORE PUSH1 0x40 SWAP1 DUP2 SWAP1 KECCAK256 DUP4 MLOAD DUP2 SLOAD DUP6 DUP6 ADD MLOAD PUSH1 0x1 PUSH1 0x1 PUSH1 0xA0 SHL SUB AND PUSH2 0x100 MUL PUSH2 0x100 PUSH1 0x1 PUSH1 0xA8 SHL SUB NOT SWAP3 ISZERO ISZERO SWAP3 SWAP1 SWAP3 AND PUSH1 0x1 PUSH1 0x1 PUSH1 0xA8 SHL SUB NOT SWAP1 SWAP2 AND OR OR DUP2 SSTORE SWAP1 DUP4 ADD MLOAD PUSH1 0x1 DUP3 ADD SSTORE PUSH1 0x60 DUP4 ADD MLOAD DUP1 MLOAD SWAP2 SWAP3 PUSH2 0x3E0 SWAP3 PUSH1 0x2 DUP6 ADD SWAP3 SWAP1 SWAP2 ADD SWAP1 PUSH2 0x1619 JUMP JUMPDEST POP PUSH1 0x80 DUP3 ADD MLOAD DUP1 MLOAD PUSH2 0x3FC SWAP2 PUSH1 0x3 DUP5 ADD SWAP2 PUSH1 0x20 SWAP1 SWAP2 ADD SWAP1 PUSH2 0x1619 JUMP JUMPDEST POP PUSH1 0xA0 DUP3 ADD MLOAD DUP1 MLOAD PUSH2 0x418 SWAP2 PUSH1 0x4 DUP5 ADD SWAP2 PUSH1 0x20 SWAP1 SWAP2 ADD SWAP1 PUSH2 0x1619 JUMP JUMPDEST POP PUSH1 0xC0 DUP3 ADD MLOAD DUP1 MLOAD PUSH2 0x434 SWAP2 PUSH1 0x5 DUP5 ADD SWAP2 PUSH1 0x20 SWAP1 SWAP2 ADD SWAP1 PUSH2 0x1619 JUMP JUMPDEST POP PUSH1 0xE0 DUP3 ADD MLOAD DUP1 MLOAD PUSH2 0x450 SWAP2 PUSH1 0x6 DUP5 ADD SWAP2 PUSH1 0x20 SWAP1 SWAP2 ADD SWAP1 PUSH2 0x1619 JUMP JUMPDEST POP PUSH2 0x100 DUP3 ADD MLOAD DUP1 MLOAD PUSH2 0x46D SWAP2 PUSH1 0x7 DUP5 ADD SWAP2 PUSH1 0x20 SWAP1 SWAP2 ADD SWAP1 PUSH2 0x1619 JUMP JUMPDEST POP PUSH2 0x120 DUP3 ADD MLOAD PUSH1 0x8 DUP3 ADD SSTORE PUSH2 0x140 DUP3 ADD MLOAD PUSH1 0x9 DUP3 ADD SSTORE PUSH2 0x160 DUP3 ADD MLOAD PUSH1 0xA DUP3 ADD SSTORE PUSH2 0x180 DUP3 ADD MLOAD PUSH1 0xB DUP3 ADD SSTORE PUSH2 0x1A0 DUP3 ADD MLOAD PUSH1 0xC DUP3 ADD DUP1 SLOAD PUSH1 0xFF NOT AND PUSH1 0x1 DUP4 PUSH1 0x2 DUP2 GT ISZERO PUSH2 0x4BE JUMPI PUSH2 0x4BE PUSH2 0x1A41 JUMP JUMPDEST MUL OR SWAP1 SSTORE POP PUSH2 0x1C0 DUP3 ADD MLOAD DUP1 MLOAD PUSH2 0x4DF SWAP2 PUSH1 0xD DUP5 ADD SWAP2 PUSH1 0x20 SWAP1 SWAP2 ADD SWAP1 PUSH2 0x169D JUMP JUMPDEST POP POP PUSH1 0x0 DUP1 SLOAD SWAP2 POP DUP1 PUSH2 0x4F1 DUP4 PUSH2 0x1C9B JUMP JUMPDEST SWAP2 SWAP1 POP SSTORE POP POP POP POP POP POP POP POP POP POP JUMP JUMPDEST TIMESTAMP PUSH1 0x3 SSTORE PUSH2 0x50D PUSH2 0x1075 JUMP JUMPDEST POP POP JUMP JUMPDEST PUSH1 0x0 PUSH1 0x60 PUSH1 0x2 SLOAD PUSH1 0x3 SLOAD TIMESTAMP PUSH2 0x526 SWAP2 SWAP1 PUSH2 0x1CB6 JUMP JUMPDEST GT SWAP2 POP SWAP3 POP SWAP3 SWAP1 POP JUMP JUMPDEST PUSH1 0x0 DUP2 DUP2 MSTORE PUSH1 0x4 PUSH1 0x20 MSTORE PUSH1 0x40 DUP2 KECCAK256 SLOAD PUSH1 0xFF AND PUSH2 0x55E JUMPI PUSH1 0x40 MLOAD PUSH3 0x461BCD PUSH1 0xE5 SHL DUP2 MSTORE PUSH1 0x4 ADD PUSH2 0x24C SWAP1 PUSH2 0x1CCD JUMP JUMPDEST POP PUSH1 0x0 SWAP1 DUP2 MSTORE PUSH1 0x5 PUSH1 0x20 SWAP1 DUP2 MSTORE PUSH1 0x40 DUP1 DUP4 KECCAK256 CALLER DUP5 MSTORE SWAP1 SWAP2 MSTORE SWAP1 KECCAK256 SLOAD SWAP1 JUMP JUMPDEST PUSH1 0x0 CALLVALUE GT PUSH2 0x5BD JUMPI PUSH1 0x40 MLOAD PUSH3 0x461BCD PUSH1 0xE5 SHL DUP2 MSTORE PUSH1 0x20 PUSH1 0x4 DUP3 ADD MSTORE PUSH1 0xE PUSH1 0x24 DUP3 ADD MSTORE PUSH14 0x2737903B30B63AB29039B2B73A17 PUSH1 0x91 SHL PUSH1 0x44 DUP3 ADD MSTORE PUSH1 0x64 ADD PUSH2 0x24C JUMP JUMPDEST PUSH1 0x0 DUP2 DUP2 MSTORE PUSH1 0x4 PUSH1 0x20 MSTORE PUSH1 0x40 SWAP1 KECCAK256 SLOAD PUSH1 0xFF AND PUSH2 0x5EB JUMPI PUSH1 0x40 MLOAD PUSH3 0x461BCD PUSH1 0xE5 SHL DUP2 MSTORE PUSH1 0x4 ADD PUSH2 0x24C SWAP1 PUSH2 0x1CCD JUMP JUMPDEST PUSH1 0x1 PUSH1 0x0 DUP3 DUP2 MSTORE PUSH1 0x4 PUSH1 0x20 MSTORE PUSH1 0x40 SWAP1 KECCAK256 PUSH1 0xC ADD SLOAD PUSH1 0xFF AND PUSH1 0x2 DUP2 GT ISZERO PUSH2 0x613 JUMPI PUSH2 0x613 PUSH2 0x1A41 JUMP JUMPDEST EQ PUSH2 0x658 JUMPI PUSH1 0x40 MLOAD PUSH3 0x461BCD PUSH1 0xE5 SHL DUP2 MSTORE PUSH1 0x20 PUSH1 0x4 DUP3 ADD MSTORE PUSH1 0x15 PUSH1 0x24 DUP3 ADD MSTORE PUSH21 0x50726F6A656374206973206E6F7420616374697665 PUSH1 0x58 SHL PUSH1 0x44 DUP3 ADD MSTORE PUSH1 0x64 ADD PUSH2 0x24C JUMP JUMPDEST CALLER PUSH1 0x0 DUP2 DUP2 MSTORE PUSH1 0x6 PUSH1 0x20 SWAP1 DUP2 MSTORE PUSH1 0x40 DUP1 DUP4 KECCAK256 DUP1 SLOAD PUSH1 0x1 DUP2 ADD DUP3 SSTORE SWAP1 DUP5 MSTORE DUP3 DUP5 KECCAK256 ADD DUP6 SWAP1 SSTORE DUP5 DUP4 MSTORE PUSH1 0x5 DUP3 MSTORE DUP1 DUP4 KECCAK256 SWAP4 DUP4 MSTORE SWAP3 SWAP1 MSTORE SWAP1 DUP2 KECCAK256 DUP1 SLOAD CALLVALUE SWAP3 SWAP1 PUSH2 0x69F SWAP1 DUP5 SWAP1 PUSH2 0x1C83 JUMP JUMPDEST SWAP1 SWAP2 SSTORE POP POP POP JUMP JUMPDEST PUSH1 0x60 PUSH1 0x0 DUP1 SLOAD PUSH8 0xFFFFFFFFFFFFFFFF DUP2 GT ISZERO PUSH2 0x6C5 JUMPI PUSH2 0x6C5 PUSH2 0x1799 JUMP JUMPDEST PUSH1 0x40 MLOAD SWAP1 DUP1 DUP3 MSTORE DUP1 PUSH1 0x20 MUL PUSH1 0x20 ADD DUP3 ADD PUSH1 0x40 MSTORE DUP1 ISZERO PUSH2 0x6FE JUMPI DUP2 PUSH1 0x20 ADD JUMPDEST PUSH2 0x6EB PUSH2 0x16F2 JUMP JUMPDEST DUP2 MSTORE PUSH1 0x20 ADD SWAP1 PUSH1 0x1 SWAP1 SUB SWAP1 DUP2 PUSH2 0x6E3 JUMPI SWAP1 POP JUMPDEST POP SWAP1 POP PUSH1 0x0 JUMPDEST PUSH1 0x0 SLOAD DUP2 LT ISZERO PUSH2 0xBB5 JUMPI PUSH1 0x0 DUP2 DUP2 MSTORE PUSH1 0x4 PUSH1 0x20 SWAP1 DUP2 MSTORE PUSH1 0x40 SWAP2 DUP3 SWAP1 KECCAK256 DUP3 MLOAD PUSH2 0x1E0 DUP2 ADD DUP5 MSTORE DUP2 SLOAD PUSH1 0xFF DUP2 AND ISZERO ISZERO DUP3 MSTORE PUSH2 0x100 SWAP1 DIV PUSH1 0x1 PUSH1 0x1 PUSH1 0xA0 SHL SUB AND SWAP3 DUP2 ADD SWAP3 SWAP1 SWAP3 MSTORE PUSH1 0x1 DUP2 ADD SLOAD SWAP3 DUP3 ADD SWAP3 SWAP1 SWAP3 MSTORE PUSH1 0x2 DUP3 ADD DUP1 SLOAD SWAP2 SWAP3 SWAP2 PUSH1 0x60 DUP5 ADD SWAP2 SWAP1 PUSH2 0x76C SWAP1 PUSH2 0x1D04 JUMP JUMPDEST DUP1 PUSH1 0x1F ADD PUSH1 0x20 DUP1 SWAP2 DIV MUL PUSH1 0x20 ADD PUSH1 0x40 MLOAD SWAP1 DUP2 ADD PUSH1 0x40 MSTORE DUP1 SWAP3 SWAP2 SWAP1 DUP2 DUP2 MSTORE PUSH1 0x20 ADD DUP3 DUP1 SLOAD PUSH2 0x798 SWAP1 PUSH2 0x1D04 JUMP JUMPDEST DUP1 ISZERO PUSH2 0x7E5 JUMPI DUP1 PUSH1 0x1F LT PUSH2 0x7BA JUMPI PUSH2 0x100 DUP1 DUP4 SLOAD DIV MUL DUP4 MSTORE SWAP2 PUSH1 0x20 ADD SWAP2 PUSH2 0x7E5 JUMP JUMPDEST DUP3 ADD SWAP2 SWAP1 PUSH1 0x0 MSTORE PUSH1 0x20 PUSH1 0x0 KECCAK256 SWAP1 JUMPDEST DUP2 SLOAD DUP2 MSTORE SWAP1 PUSH1 0x1 ADD SWAP1 PUSH1 0x20 ADD DUP1 DUP4 GT PUSH2 0x7C8 JUMPI DUP3 SWAP1 SUB PUSH1 0x1F AND DUP3 ADD SWAP2 JUMPDEST POP POP POP POP POP DUP2 MSTORE PUSH1 0x20 ADD PUSH1 0x3 DUP3 ADD DUP1 SLOAD PUSH2 0x7FE SWAP1 PUSH2 0x1D04 JUMP JUMPDEST DUP1 PUSH1 0x1F ADD PUSH1 0x20 DUP1 SWAP2 DIV MUL PUSH1 0x20 ADD PUSH1 0x40 MLOAD SWAP1 DUP2 ADD PUSH1 0x40 MSTORE DUP1 SWAP3 SWAP2 SWAP1 DUP2 DUP2 MSTORE PUSH1 0x20 ADD DUP3 DUP1 SLOAD PUSH2 0x82A SWAP1 PUSH2 0x1D04 JUMP JUMPDEST DUP1 ISZERO PUSH2 0x877 JUMPI DUP1 PUSH1 0x1F LT PUSH2 0x84C JUMPI PUSH2 0x100 DUP1 DUP4 SLOAD DIV MUL DUP4 MSTORE SWAP2 PUSH1 0x20 ADD SWAP2 PUSH2 0x877 JUMP JUMPDEST DUP3 ADD SWAP2 SWAP1 PUSH1 0x0 MSTORE PUSH1 0x20 PUSH1 0x0 KECCAK256 SWAP1 JUMPDEST DUP2 SLOAD DUP2 MSTORE SWAP1 PUSH1 0x1 ADD SWAP1 PUSH1 0x20 ADD DUP1 DUP4 GT PUSH2 0x85A JUMPI DUP3 SWAP1 SUB PUSH1 0x1F AND DUP3 ADD SWAP2 JUMPDEST POP POP POP POP POP DUP2 MSTORE PUSH1 0x20 ADD PUSH1 0x4 DUP3 ADD DUP1 SLOAD PUSH2 0x890 SWAP1 PUSH2 0x1D04 JUMP JUMPDEST DUP1 PUSH1 0x1F ADD PUSH1 0x20 DUP1 SWAP2 DIV MUL PUSH1 0x20 ADD PUSH1 0x40 MLOAD SWAP1 DUP2 ADD PUSH1 0x40 MSTORE DUP1 SWAP3 SWAP2 SWAP1 DUP2 DUP2 MSTORE PUSH1 0x20 ADD DUP3 DUP1 SLOAD PUSH2 0x8BC SWAP1 PUSH2 0x1D04 JUMP JUMPDEST DUP1 ISZERO PUSH2 0x909 JUMPI DUP1 PUSH1 0x1F LT PUSH2 0x8DE JUMPI PUSH2 0x100 DUP1 DUP4 SLOAD DIV MUL DUP4 MSTORE SWAP2 PUSH1 0x20 ADD SWAP2 PUSH2 0x909 JUMP JUMPDEST DUP3 ADD SWAP2 SWAP1 PUSH1 0x0 MSTORE PUSH1 0x20 PUSH1 0x0 KECCAK256 SWAP1 JUMPDEST DUP2 SLOAD DUP2 MSTORE SWAP1 PUSH1 0x1 ADD SWAP1 PUSH1 0x20 ADD DUP1 DUP4 GT PUSH2 0x8EC JUMPI DUP3 SWAP1 SUB PUSH1 0x1F AND DUP3 ADD SWAP2 JUMPDEST POP POP POP POP POP DUP2 MSTORE PUSH1 0x20 ADD PUSH1 0x5 DUP3 ADD DUP1 SLOAD PUSH2 0x922 SWAP1 PUSH2 0x1D04 JUMP JUMPDEST DUP1 PUSH1 0x1F ADD PUSH1 0x20 DUP1 SWAP2 DIV MUL PUSH1 0x20 ADD PUSH1 0x40 MLOAD SWAP1 DUP2 ADD PUSH1 0x40 MSTORE DUP1 SWAP3 SWAP2 SWAP1 DUP2 DUP2 MSTORE PUSH1 0x20 ADD DUP3 DUP1 SLOAD PUSH2 0x94E SWAP1 PUSH2 0x1D04 JUMP JUMPDEST DUP1 ISZERO PUSH2 0x99B JUMPI DUP1 PUSH1 0x1F LT PUSH2 0x970 JUMPI PUSH2 0x100 DUP1 DUP4 SLOAD DIV MUL DUP4 MSTORE SWAP2 PUSH1 0x20 ADD SWAP2 PUSH2 0x99B JUMP JUMPDEST DUP3 ADD SWAP2 SWAP1 PUSH1 0x0 MSTORE PUSH1 0x20 PUSH1 0x0 KECCAK256 SWAP1 JUMPDEST DUP2 SLOAD DUP2 MSTORE SWAP1 PUSH1 0x1 ADD SWAP1 PUSH1 0x20 ADD DUP1 DUP4 GT PUSH2 0x97E JUMPI DUP3 SWAP1 SUB PUSH1 0x1F AND DUP3 ADD SWAP2 JUMPDEST POP POP POP POP POP DUP2 MSTORE PUSH1 0x20 ADD PUSH1 0x6 DUP3 ADD DUP1 SLOAD PUSH2 0x9B4 SWAP1 PUSH2 0x1D04 JUMP JUMPDEST DUP1 PUSH1 0x1F ADD PUSH1 0x20 DUP1 SWAP2 DIV MUL PUSH1 0x20 ADD PUSH1 0x40 MLOAD SWAP1 DUP2 ADD PUSH1 0x40 MSTORE DUP1 SWAP3 SWAP2 SWAP1 DUP2 DUP2 MSTORE PUSH1 0x20 ADD DUP3 DUP1 SLOAD PUSH2 0x9E0 SWAP1 PUSH2 0x1D04 JUMP JUMPDEST DUP1 ISZERO PUSH2 0xA2D JUMPI DUP1 PUSH1 0x1F LT PUSH2 0xA02 JUMPI PUSH2 0x100 DUP1 DUP4 SLOAD DIV MUL DUP4 MSTORE SWAP2 PUSH1 0x20 ADD SWAP2 PUSH2 0xA2D JUMP JUMPDEST DUP3 ADD SWAP2 SWAP1 PUSH1 0x0 MSTORE PUSH1 0x20 PUSH1 0x0 KECCAK256 SWAP1 JUMPDEST DUP2 SLOAD DUP2 MSTORE SWAP1 PUSH1 0x1 ADD SWAP1 PUSH1 0x20 ADD DUP1 DUP4 GT PUSH2 0xA10 JUMPI DUP3 SWAP1 SUB PUSH1 0x1F AND DUP3 ADD SWAP2 JUMPDEST POP POP POP POP POP DUP2 MSTORE PUSH1 0x20 ADD PUSH1 0x7 DUP3 ADD DUP1 SLOAD PUSH2 0xA46 SWAP1 PUSH2 0x1D04 JUMP JUMPDEST DUP1 PUSH1 0x1F ADD PUSH1 0x20 DUP1 SWAP2 DIV MUL PUSH1 0x20 ADD PUSH1 0x40 MLOAD SWAP1 DUP2 ADD PUSH1 0x40 MSTORE DUP1 SWAP3 SWAP2 SWAP1 DUP2 DUP2 MSTORE PUSH1 0x20 ADD DUP3 DUP1 SLOAD PUSH2 0xA72 SWAP1 PUSH2 0x1D04 JUMP JUMPDEST DUP1 ISZERO PUSH2 0xABF JUMPI DUP1 PUSH1 0x1F LT PUSH2 0xA94 JUMPI PUSH2 0x100 DUP1 DUP4 SLOAD DIV MUL DUP4 MSTORE SWAP2 PUSH1 0x20 ADD SWAP2 PUSH2 0xABF JUMP JUMPDEST DUP3 ADD SWAP2 SWAP1 PUSH1 0x0 MSTORE PUSH1 0x20 PUSH1 0x0 KECCAK256 SWAP1 JUMPDEST DUP2 SLOAD DUP2 MSTORE SWAP1 PUSH1 0x1 ADD SWAP1 PUSH1 0x20 ADD DUP1 DUP4 GT PUSH2 0xAA2 JUMPI DUP3 SWAP1 SUB PUSH1 0x1F AND DUP3 ADD SWAP2 JUMPDEST POP POP POP SWAP2 DUP4 MSTORE POP POP PUSH1 0x8 DUP3 ADD SLOAD PUSH1 0x20 DUP3 ADD MSTORE PUSH1 0x9 DUP3 ADD SLOAD PUSH1 0x40 DUP3 ADD MSTORE PUSH1 0xA DUP3 ADD SLOAD PUSH1 0x60 DUP3 ADD MSTORE PUSH1 0xB DUP3 ADD SLOAD PUSH1 0x80 DUP3 ADD MSTORE PUSH1 0xC DUP3 ADD SLOAD PUSH1 0xA0 SWAP1 SWAP2 ADD SWAP1 PUSH1 0xFF AND PUSH1 0x2 DUP2 GT ISZERO PUSH2 0xB0E JUMPI PUSH2 0xB0E PUSH2 0x1A41 JUMP JUMPDEST PUSH1 0x2 DUP2 GT ISZERO PUSH2 0xB1F JUMPI PUSH2 0xB1F PUSH2 0x1A41 JUMP JUMPDEST DUP2 MSTORE PUSH1 0x20 ADD PUSH1 0xD DUP3 ADD DUP1 SLOAD DUP1 PUSH1 0x20 MUL PUSH1 0x20 ADD PUSH1 0x40 MLOAD SWAP1 DUP2 ADD PUSH1 0x40 MSTORE DUP1 SWAP3 SWAP2 SWAP1 DUP2 DUP2 MSTORE PUSH1 0x20 ADD DUP3 DUP1 SLOAD DUP1 ISZERO PUSH2 0xB7C JUMPI PUSH1 0x20 MUL DUP3 ADD SWAP2 SWAP1 PUSH1 0x0 MSTORE PUSH1 0x20 PUSH1 0x0 KECCAK256 SWAP1 JUMPDEST DUP2 SLOAD PUSH1 0x1 PUSH1 0x1 PUSH1 0xA0 SHL SUB AND DUP2 MSTORE PUSH1 0x1 SWAP1 SWAP2 ADD SWAP1 PUSH1 0x20 ADD DUP1 DUP4 GT PUSH2 0xB5E JUMPI JUMPDEST POP POP POP POP POP DUP2 MSTORE POP POP DUP3 DUP3 DUP2 MLOAD DUP2 LT PUSH2 0xB97 JUMPI PUSH2 0xB97 PUSH2 0x1D39 JUMP JUMPDEST PUSH1 0x20 MUL PUSH1 0x20 ADD ADD DUP2 SWAP1 MSTORE POP DUP1 DUP1 PUSH2 0xBAD SWAP1 PUSH2 0x1C9B JUMP JUMPDEST SWAP2 POP POP PUSH2 0x704 JUMP JUMPDEST POP SWAP2 SWAP1 POP JUMP JUMPDEST PUSH2 0xBC3 PUSH2 0x16F2 JUMP JUMPDEST PUSH1 0x0 DUP3 DUP2 MSTORE PUSH1 0x4 PUSH1 0x20 MSTORE PUSH1 0x40 SWAP1 KECCAK256 SLOAD DUP3 SWAP1 PUSH1 0xFF AND ISZERO ISZERO PUSH1 0x1 EQ PUSH2 0xBF8 JUMPI PUSH1 0x40 MLOAD PUSH3 0x461BCD PUSH1 0xE5 SHL DUP2 MSTORE PUSH1 0x4 ADD PUSH2 0x24C SWAP1 PUSH2 0x1CCD JUMP JUMPDEST PUSH1 0x0 DUP4 DUP2 MSTORE PUSH1 0x4 PUSH1 0x20 SWAP1 DUP2 MSTORE PUSH1 0x40 DUP1 DUP4 KECCAK256 DUP2 MLOAD PUSH2 0x1E0 DUP2 ADD DUP4 MSTORE DUP2 SLOAD PUSH1 0xFF DUP2 AND ISZERO ISZERO DUP3 MSTORE PUSH2 0x100 SWAP1 DIV PUSH1 0x1 PUSH1 0x1 PUSH1 0xA0 SHL SUB AND SWAP4 DUP2 ADD SWAP4 SWAP1 SWAP4 MSTORE PUSH1 0x1 DUP2 ADD SLOAD SWAP2 DUP4 ADD SWAP2 SWAP1 SWAP2 MSTORE PUSH1 0x2 DUP2 ADD DUP1 SLOAD PUSH1 0x60 DUP5 ADD SWAP2 SWAP1 PUSH2 0xC52 SWAP1 PUSH2 0x1D04 JUMP JUMPDEST DUP1 PUSH1 0x1F ADD PUSH1 0x20 DUP1 SWAP2 DIV MUL PUSH1 0x20 ADD PUSH1 0x40 MLOAD SWAP1 DUP2 ADD PUSH1 0x40 MSTORE DUP1 SWAP3 SWAP2 SWAP1 DUP2 DUP2 MSTORE PUSH1 0x20 ADD DUP3 DUP1 SLOAD PUSH2 0xC7E SWAP1 PUSH2 0x1D04 JUMP JUMPDEST DUP1 ISZERO PUSH2 0xCCB JUMPI DUP1 PUSH1 0x1F LT PUSH2 0xCA0 JUMPI PUSH2 0x100 DUP1 DUP4 SLOAD DIV MUL DUP4 MSTORE SWAP2 PUSH1 0x20 ADD SWAP2 PUSH2 0xCCB JUMP JUMPDEST DUP3 ADD SWAP2 SWAP1 PUSH1 0x0 MSTORE PUSH1 0x20 PUSH1 0x0 KECCAK256 SWAP1 JUMPDEST DUP2 SLOAD DUP2 MSTORE SWAP1 PUSH1 0x1 ADD SWAP1 PUSH1 0x20 ADD DUP1 DUP4 GT PUSH2 0xCAE JUMPI DUP3 SWAP1 SUB PUSH1 0x1F AND DUP3 ADD SWAP2 JUMPDEST POP POP POP POP POP DUP2 MSTORE PUSH1 0x20 ADD PUSH1 0x3 DUP3 ADD DUP1 SLOAD PUSH2 0xCE4 SWAP1 PUSH2 0x1D04 JUMP JUMPDEST DUP1 PUSH1 0x1F ADD PUSH1 0x20 DUP1 SWAP2 DIV MUL PUSH1 0x20 ADD PUSH1 0x40 MLOAD SWAP1 DUP2 ADD PUSH1 0x40 MSTORE DUP1 SWAP3 SWAP2 SWAP1 DUP2 DUP2 MSTORE PUSH1 0x20 ADD DUP3 DUP1 SLOAD PUSH2 0xD10 SWAP1 PUSH2 0x1D04 JUMP JUMPDEST DUP1 ISZERO PUSH2 0xD5D JUMPI DUP1 PUSH1 0x1F LT PUSH2 0xD32 JUMPI PUSH2 0x100 DUP1 DUP4 SLOAD DIV MUL DUP4 MSTORE SWAP2 PUSH1 0x20 ADD SWAP2 PUSH2 0xD5D JUMP JUMPDEST DUP3 ADD SWAP2 SWAP1 PUSH1 0x0 MSTORE PUSH1 0x20 PUSH1 0x0 KECCAK256 SWAP1 JUMPDEST DUP2 SLOAD DUP2 MSTORE SWAP1 PUSH1 0x1 ADD SWAP1 PUSH1 0x20 ADD DUP1 DUP4 GT PUSH2 0xD40 JUMPI DUP3 SWAP1 SUB PUSH1 0x1F AND DUP3 ADD SWAP2 JUMPDEST POP POP POP POP POP DUP2 MSTORE PUSH1 0x20 ADD PUSH1 0x4 DUP3 ADD DUP1 SLOAD PUSH2 0xD76 SWAP1 PUSH2 0x1D04 JUMP JUMPDEST DUP1 PUSH1 0x1F ADD PUSH1 0x20 DUP1 SWAP2 DIV MUL PUSH1 0x20 ADD PUSH1 0x40 MLOAD SWAP1 DUP2 ADD PUSH1 0x40 MSTORE DUP1 SWAP3 SWAP2 SWAP1 DUP2 DUP2 MSTORE PUSH1 0x20 ADD DUP3 DUP1 SLOAD PUSH2 0xDA2 SWAP1 PUSH2 0x1D04 JUMP JUMPDEST DUP1 ISZERO PUSH2 0xDEF JUMPI DUP1 PUSH1 0x1F LT PUSH2 0xDC4 JUMPI PUSH2 0x100 DUP1 DUP4 SLOAD DIV MUL DUP4 MSTORE SWAP2 PUSH1 0x20 ADD SWAP2 PUSH2 0xDEF JUMP JUMPDEST DUP3 ADD SWAP2 SWAP1 PUSH1 0x0 MSTORE PUSH1 0x20 PUSH1 0x0 KECCAK256 SWAP1 JUMPDEST DUP2 SLOAD DUP2 MSTORE SWAP1 PUSH1 0x1 ADD SWAP1 PUSH1 0x20 ADD DUP1 DUP4 GT PUSH2 0xDD2 JUMPI DUP3 SWAP1 SUB PUSH1 0x1F AND DUP3 ADD SWAP2 JUMPDEST POP POP POP POP POP DUP2 MSTORE PUSH1 0x20 ADD PUSH1 0x5 DUP3 ADD DUP1 SLOAD PUSH2 0xE08 SWAP1 PUSH2 0x1D04 JUMP JUMPDEST DUP1 PUSH1 0x1F ADD PUSH1 0x20 DUP1 SWAP2 DIV MUL PUSH1 0x20 ADD PUSH1 0x40 MLOAD SWAP1 DUP2 ADD PUSH1 0x40 MSTORE DUP1 SWAP3 SWAP2 SWAP1 DUP2 DUP2 MSTORE PUSH1 0x20 ADD DUP3 DUP1 SLOAD PUSH2 0xE34 SWAP1 PUSH2 0x1D04 JUMP JUMPDEST DUP1 ISZERO PUSH2 0xE81 JUMPI DUP1 PUSH1 0x1F LT PUSH2 0xE56 JUMPI PUSH2 0x100 DUP1 DUP4 SLOAD DIV MUL DUP4 MSTORE SWAP2 PUSH1 0x20 ADD SWAP2 PUSH2 0xE81 JUMP JUMPDEST DUP3 ADD SWAP2 SWAP1 PUSH1 0x0 MSTORE PUSH1 0x20 PUSH1 0x0 KECCAK256 SWAP1 JUMPDEST DUP2 SLOAD DUP2 MSTORE SWAP1 PUSH1 0x1 ADD SWAP1 PUSH1 0x20 ADD DUP1 DUP4 GT PUSH2 0xE64 JUMPI DUP3 SWAP1 SUB PUSH1 0x1F AND DUP3 ADD SWAP2 JUMPDEST POP POP POP POP POP DUP2 MSTORE PUSH1 0x20 ADD PUSH1 0x6 DUP3 ADD DUP1 SLOAD PUSH2 0xE9A SWAP1 PUSH2 0x1D04 JUMP JUMPDEST DUP1 PUSH1 0x1F ADD PUSH1 0x20 DUP1 SWAP2 DIV MUL PUSH1 0x20 ADD PUSH1 0x40 MLOAD SWAP1 DUP2 ADD PUSH1 0x40 MSTORE DUP1 SWAP3 SWAP2 SWAP1 DUP2 DUP2 MSTORE PUSH1 0x20 ADD DUP3 DUP1 SLOAD PUSH2 0xEC6 SWAP1 PUSH2 0x1D04 JUMP JUMPDEST DUP1 ISZERO PUSH2 0xF13 JUMPI DUP1 PUSH1 0x1F LT PUSH2 0xEE8 JUMPI PUSH2 0x100 DUP1 DUP4 SLOAD DIV MUL DUP4 MSTORE SWAP2 PUSH1 0x20 ADD SWAP2 PUSH2 0xF13 JUMP JUMPDEST DUP3 ADD SWAP2 SWAP1 PUSH1 0x0 MSTORE PUSH1 0x20 PUSH1 0x0 KECCAK256 SWAP1 JUMPDEST DUP2 SLOAD DUP2 MSTORE SWAP1 PUSH1 0x1 ADD SWAP1 PUSH1 0x20 ADD DUP1 DUP4 GT PUSH2 0xEF6 JUMPI DUP3 SWAP1 SUB PUSH1 0x1F AND DUP3 ADD SWAP2 JUMPDEST POP POP POP POP POP DUP2 MSTORE PUSH1 0x20 ADD PUSH1 0x7 DUP3 ADD DUP1 SLOAD PUSH2 0xF2C SWAP1 PUSH2 0x1D04 JUMP JUMPDEST DUP1 PUSH1 0x1F ADD PUSH1 0x20 DUP1 SWAP2 DIV MUL PUSH1 0x20 ADD PUSH1 0x40 MLOAD SWAP1 DUP2 ADD PUSH1 0x40 MSTORE DUP1 SWAP3 SWAP2 SWAP1 DUP2 DUP2 MSTORE PUSH1 0x20 ADD DUP3 DUP1 SLOAD PUSH2 0xF58 SWAP1 PUSH2 0x1D04 JUMP JUMPDEST DUP1 ISZERO PUSH2 0xFA5 JUMPI DUP1 PUSH1 0x1F LT PUSH2 0xF7A JUMPI PUSH2 0x100 DUP1 DUP4 SLOAD DIV MUL DUP4 MSTORE SWAP2 PUSH1 0x20 ADD SWAP2 PUSH2 0xFA5 JUMP JUMPDEST DUP3 ADD SWAP2 SWAP1 PUSH1 0x0 MSTORE PUSH1 0x20 PUSH1 0x0 KECCAK256 SWAP1 JUMPDEST DUP2 SLOAD DUP2 MSTORE SWAP1 PUSH1 0x1 ADD SWAP1 PUSH1 0x20 ADD DUP1 DUP4 GT PUSH2 0xF88 JUMPI DUP3 SWAP1 SUB PUSH1 0x1F AND DUP3 ADD SWAP2 JUMPDEST POP POP POP SWAP2 DUP4 MSTORE POP POP PUSH1 0x8 DUP3 ADD SLOAD PUSH1 0x20 DUP3 ADD MSTORE PUSH1 0x9 DUP3 ADD SLOAD PUSH1 0x40 DUP3 ADD MSTORE PUSH1 0xA DUP3 ADD SLOAD PUSH1 0x60 DUP3 ADD MSTORE PUSH1 0xB DUP3 ADD SLOAD PUSH1 0x80 DUP3 ADD MSTORE PUSH1 0xC DUP3 ADD SLOAD PUSH1 0xA0 SWAP1 SWAP2 ADD SWAP1 PUSH1 0xFF AND PUSH1 0x2 DUP2 GT ISZERO PUSH2 0xFF4 JUMPI PUSH2 0xFF4 PUSH2 0x1A41 JUMP JUMPDEST PUSH1 0x2 DUP2 GT ISZERO PUSH2 0x1005 JUMPI PUSH2 0x1005 PUSH2 0x1A41 JUMP JUMPDEST DUP2 MSTORE PUSH1 0x20 ADD PUSH1 0xD DUP3 ADD DUP1 SLOAD DUP1 PUSH1 0x20 MUL PUSH1 0x20 ADD PUSH1 0x40 MLOAD SWAP1 DUP2 ADD PUSH1 0x40 MSTORE DUP1 SWAP3 SWAP2 SWAP1 DUP2 DUP2 MSTORE PUSH1 0x20 ADD DUP3 DUP1 SLOAD DUP1 ISZERO PUSH2 0x1062 JUMPI PUSH1 0x20 MUL DUP3 ADD SWAP2 SWAP1 PUSH1 0x0 MSTORE PUSH1 0x20 PUSH1 0x0 KECCAK256 SWAP1 JUMPDEST DUP2 SLOAD PUSH1 0x1 PUSH1 0x1 PUSH1 0xA0 SHL SUB AND DUP2 MSTORE PUSH1 0x1 SWAP1 SWAP2 ADD SWAP1 PUSH1 0x20 ADD DUP1 DUP4 GT PUSH2 0x1044 JUMPI JUMPDEST POP POP POP SWAP2 SWAP1 SWAP3 MSTORE POP SWAP2 SWAP7 SWAP6 POP POP POP POP POP POP JUMP JUMPDEST PUSH1 0x0 JUMPDEST PUSH1 0x0 SLOAD DUP2 LT ISZERO PUSH2 0x151F JUMPI PUSH1 0x0 DUP2 DUP2 MSTORE PUSH1 0x4 PUSH1 0x20 SWAP1 DUP2 MSTORE PUSH1 0x40 DUP1 DUP4 KECCAK256 DUP2 MLOAD PUSH2 0x1E0 DUP2 ADD DUP4 MSTORE DUP2 SLOAD PUSH1 0xFF DUP2 AND ISZERO ISZERO DUP3 MSTORE PUSH2 0x100 SWAP1 DIV PUSH1 0x1 PUSH1 0x1 PUSH1 0xA0 SHL SUB AND SWAP4 DUP2 ADD SWAP4 SWAP1 SWAP4 MSTORE PUSH1 0x1 DUP2 ADD SLOAD SWAP2 DUP4 ADD SWAP2 SWAP1 SWAP2 MSTORE PUSH1 0x2 DUP2 ADD DUP1 SLOAD PUSH1 0x60 DUP5 ADD SWAP2 SWAP1 PUSH2 0x10DC SWAP1 PUSH2 0x1D04 JUMP JUMPDEST DUP1 PUSH1 0x1F ADD PUSH1 0x20 DUP1 SWAP2 DIV MUL PUSH1 0x20 ADD PUSH1 0x40 MLOAD SWAP1 DUP2 ADD PUSH1 0x40 MSTORE DUP1 SWAP3 SWAP2 SWAP1 DUP2 DUP2 MSTORE PUSH1 0x20 ADD DUP3 DUP1 SLOAD PUSH2 0x1108 SWAP1 PUSH2 0x1D04 JUMP JUMPDEST DUP1 ISZERO PUSH2 0x1155 JUMPI DUP1 PUSH1 0x1F LT PUSH2 0x112A JUMPI PUSH2 0x100 DUP1 DUP4 SLOAD DIV MUL DUP4 MSTORE SWAP2 PUSH1 0x20 ADD SWAP2 PUSH2 0x1155 JUMP JUMPDEST DUP3 ADD SWAP2 SWAP1 PUSH1 0x0 MSTORE PUSH1 0x20 PUSH1 0x0 KECCAK256 SWAP1 JUMPDEST DUP2 SLOAD DUP2 MSTORE SWAP1 PUSH1 0x1 ADD SWAP1 PUSH1 0x20 ADD DUP1 DUP4 GT PUSH2 0x1138 JUMPI DUP3 SWAP1 SUB PUSH1 0x1F AND DUP3 ADD SWAP2 JUMPDEST POP POP POP POP POP DUP2 MSTORE PUSH1 0x20 ADD PUSH1 0x3 DUP3 ADD DUP1 SLOAD PUSH2 0x116E SWAP1 PUSH2 0x1D04 JUMP JUMPDEST DUP1 PUSH1 0x1F ADD PUSH1 0x20 DUP1 SWAP2 DIV MUL PUSH1 0x20 ADD PUSH1 0x40 MLOAD SWAP1 DUP2 ADD PUSH1 0x40 MSTORE DUP1 SWAP3 SWAP2 SWAP1 DUP2 DUP2 MSTORE PUSH1 0x20 ADD DUP3 DUP1 SLOAD PUSH2 0x119A SWAP1 PUSH2 0x1D04 JUMP JUMPDEST DUP1 ISZERO PUSH2 0x11E7 JUMPI DUP1 PUSH1 0x1F LT PUSH2 0x11BC JUMPI PUSH2 0x100 DUP1 DUP4 SLOAD DIV MUL DUP4 MSTORE SWAP2 PUSH1 0x20 ADD SWAP2 PUSH2 0x11E7 JUMP JUMPDEST DUP3 ADD SWAP2 SWAP1 PUSH1 0x0 MSTORE PUSH1 0x20 PUSH1 0x0 KECCAK256 SWAP1 JUMPDEST DUP2 SLOAD DUP2 MSTORE SWAP1 PUSH1 0x1 ADD SWAP1 PUSH1 0x20 ADD DUP1 DUP4 GT PUSH2 0x11CA JUMPI DUP3 SWAP1 SUB PUSH1 0x1F AND DUP3 ADD SWAP2 JUMPDEST POP POP POP POP POP DUP2 MSTORE PUSH1 0x20 ADD PUSH1 0x4 DUP3 ADD DUP1 SLOAD PUSH2 0x1200 SWAP1 PUSH2 0x1D04 JUMP JUMPDEST DUP1 PUSH1 0x1F ADD PUSH1 0x20 DUP1 SWAP2 DIV MUL PUSH1 0x20 ADD PUSH1 0x40 MLOAD SWAP1 DUP2 ADD PUSH1 0x40 MSTORE DUP1 SWAP3 SWAP2 SWAP1 DUP2 DUP2 MSTORE PUSH1 0x20 ADD DUP3 DUP1 SLOAD PUSH2 0x122C SWAP1 PUSH2 0x1D04 JUMP JUMPDEST DUP1 ISZERO PUSH2 0x1279 JUMPI DUP1 PUSH1 0x1F LT PUSH2 0x124E JUMPI PUSH2 0x100 DUP1 DUP4 SLOAD DIV MUL DUP4 MSTORE SWAP2 PUSH1 0x20 ADD SWAP2 PUSH2 0x1279 JUMP JUMPDEST DUP3 ADD SWAP2 SWAP1 PUSH1 0x0 MSTORE PUSH1 0x20 PUSH1 0x0 KECCAK256 SWAP1 JUMPDEST DUP2 SLOAD DUP2 MSTORE SWAP1 PUSH1 0x1 ADD SWAP1 PUSH1 0x20 ADD DUP1 DUP4 GT PUSH2 0x125C JUMPI DUP3 SWAP1 SUB PUSH1 0x1F AND DUP3 ADD SWAP2 JUMPDEST POP POP POP POP POP DUP2 MSTORE PUSH1 0x20 ADD PUSH1 0x5 DUP3 ADD DUP1 SLOAD PUSH2 0x1292 SWAP1 PUSH2 0x1D04 JUMP JUMPDEST DUP1 PUSH1 0x1F ADD PUSH1 0x20 DUP1 SWAP2 DIV MUL PUSH1 0x20 ADD PUSH1 0x40 MLOAD SWAP1 DUP2 ADD PUSH1 0x40 MSTORE DUP1 SWAP3 SWAP2 SWAP1 DUP2 DUP2 MSTORE PUSH1 0x20 ADD DUP3 DUP1 SLOAD PUSH2 0x12BE SWAP1 PUSH2 0x1D04 JUMP JUMPDEST DUP1 ISZERO PUSH2 0x130B JUMPI DUP1 PUSH1 0x1F LT PUSH2 0x12E0 JUMPI PUSH2 0x100 DUP1 DUP4 SLOAD DIV MUL DUP4 MSTORE SWAP2 PUSH1 0x20 ADD SWAP2 PUSH2 0x130B JUMP JUMPDEST DUP3 ADD SWAP2 SWAP1 PUSH1 0x0 MSTORE PUSH1 0x20 PUSH1 0x0 KECCAK256 SWAP1 JUMPDEST DUP2 SLOAD DUP2 MSTORE SWAP1 PUSH1 0x1 ADD SWAP1 PUSH1 0x20 ADD DUP1 DUP4 GT PUSH2 0x12EE JUMPI DUP3 SWAP1 SUB PUSH1 0x1F AND DUP3 ADD SWAP2 JUMPDEST POP POP POP POP POP DUP2 MSTORE PUSH1 0x20 ADD PUSH1 0x6 DUP3 ADD DUP1 SLOAD PUSH2 0x1324 SWAP1 PUSH2 0x1D04 JUMP JUMPDEST DUP1 PUSH1 0x1F ADD PUSH1 0x20 DUP1 SWAP2 DIV MUL PUSH1 0x20 ADD PUSH1 0x40 MLOAD SWAP1 DUP2 ADD PUSH1 0x40 MSTORE DUP1 SWAP3 SWAP2 SWAP1 DUP2 DUP2 MSTORE PUSH1 0x20 ADD DUP3 DUP1 SLOAD PUSH2 0x1350 SWAP1 PUSH2 0x1D04 JUMP JUMPDEST DUP1 ISZERO PUSH2 0x139D JUMPI DUP1 PUSH1 0x1F LT PUSH2 0x1372 JUMPI PUSH2 0x100 DUP1 DUP4 SLOAD DIV MUL DUP4 MSTORE SWAP2 PUSH1 0x20 ADD SWAP2 PUSH2 0x139D JUMP JUMPDEST DUP3 ADD SWAP2 SWAP1 PUSH1 0x0 MSTORE PUSH1 0x20 PUSH1 0x0 KECCAK256 SWAP1 JUMPDEST DUP2 SLOAD DUP2 MSTORE SWAP1 PUSH1 0x1 ADD SWAP1 PUSH1 0x20 ADD DUP1 DUP4 GT PUSH2 0x1380 JUMPI DUP3 SWAP1 SUB PUSH1 0x1F AND DUP3 ADD SWAP2 JUMPDEST POP POP POP POP POP DUP2 MSTORE PUSH1 0x20 ADD PUSH1 0x7 DUP3 ADD DUP1 SLOAD PUSH2 0x13B6 SWAP1 PUSH2 0x1D04 JUMP JUMPDEST DUP1 PUSH1 0x1F ADD PUSH1 0x20 DUP1 SWAP2 DIV MUL PUSH1 0x20 ADD PUSH1 0x40 MLOAD SWAP1 DUP2 ADD PUSH1 0x40 MSTORE DUP1 SWAP3 SWAP2 SWAP1 DUP2 DUP2 MSTORE PUSH1 0x20 ADD DUP3 DUP1 SLOAD PUSH2 0x13E2 SWAP1 PUSH2 0x1D04 JUMP JUMPDEST DUP1 ISZERO PUSH2 0x142F JUMPI DUP1 PUSH1 0x1F LT PUSH2 0x1404 JUMPI PUSH2 0x100 DUP1 DUP4 SLOAD DIV MUL DUP4 MSTORE SWAP2 PUSH1 0x20 ADD SWAP2 PUSH2 0x142F JUMP JUMPDEST DUP3 ADD SWAP2 SWAP1 PUSH1 0x0 MSTORE PUSH1 0x20 PUSH1 0x0 KECCAK256 SWAP1 JUMPDEST DUP2 SLOAD DUP2 MSTORE SWAP1 PUSH1 0x1 ADD SWAP1 PUSH1 0x20 ADD DUP1 DUP4 GT PUSH2 0x1412 JUMPI DUP3 SWAP1 SUB PUSH1 0x1F AND DUP3 ADD SWAP2 JUMPDEST POP POP POP SWAP2 DUP4 MSTORE POP POP PUSH1 0x8 DUP3 ADD SLOAD PUSH1 0x20 DUP3 ADD MSTORE PUSH1 0x9 DUP3 ADD SLOAD PUSH1 0x40 DUP3 ADD MSTORE PUSH1 0xA DUP3 ADD SLOAD PUSH1 0x60 DUP3 ADD MSTORE PUSH1 0xB DUP3 ADD SLOAD PUSH1 0x80 DUP3 ADD MSTORE PUSH1 0xC DUP3 ADD SLOAD PUSH1 0xA0 SWAP1 SWAP2 ADD SWAP1 PUSH1 0xFF AND PUSH1 0x2 DUP2 GT ISZERO PUSH2 0x147E JUMPI PUSH2 0x147E PUSH2 0x1A41 JUMP JUMPDEST PUSH1 0x2 DUP2 GT ISZERO PUSH2 0x148F JUMPI PUSH2 0x148F PUSH2 0x1A41 JUMP JUMPDEST DUP2 MSTORE PUSH1 0x20 ADD PUSH1 0xD DUP3 ADD DUP1 SLOAD DUP1 PUSH1 0x20 MUL PUSH1 0x20 ADD PUSH1 0x40 MLOAD SWAP1 DUP2 ADD PUSH1 0x40 MSTORE DUP1 SWAP3 SWAP2 SWAP1 DUP2 DUP2 MSTORE PUSH1 0x20 ADD DUP3 DUP1 SLOAD DUP1 ISZERO PUSH2 0x14EC JUMPI PUSH1 0x20 MUL DUP3 ADD SWAP2 SWAP1 PUSH1 0x0 MSTORE PUSH1 0x20 PUSH1 0x0 KECCAK256 SWAP1 JUMPDEST DUP2 SLOAD PUSH1 0x1 PUSH1 0x1 PUSH1 0xA0 SHL SUB AND DUP2 MSTORE PUSH1 0x1 SWAP1 SWAP2 ADD SWAP1 PUSH1 0x20 ADD DUP1 DUP4 GT PUSH2 0x14CE JUMPI JUMPDEST POP POP POP POP POP DUP2 MSTORE POP POP SWAP1 POP DUP1 PUSH2 0x180 ADD MLOAD TIMESTAMP LT PUSH2 0x150C JUMPI PUSH2 0x150C DUP2 PUSH2 0x1522 JUMP JUMPDEST POP DUP1 PUSH2 0x1517 DUP2 PUSH2 0x1C9B JUMP JUMPDEST SWAP2 POP POP PUSH2 0x1078 JUMP JUMPDEST POP JUMP JUMPDEST DUP1 PUSH2 0x140 ADD MLOAD DUP2 PUSH2 0x120 ADD MLOAD LT PUSH2 0x1575 JUMPI DUP1 PUSH1 0x20 ADD MLOAD PUSH1 0x1 PUSH1 0x1 PUSH1 0xA0 SHL SUB AND PUSH2 0x8FC DUP3 PUSH2 0x120 ADD MLOAD SWAP1 DUP2 ISZERO MUL SWAP1 PUSH1 0x40 MLOAD PUSH1 0x0 PUSH1 0x40 MLOAD DUP1 DUP4 SUB DUP2 DUP6 DUP9 DUP9 CALL SWAP4 POP POP POP POP ISZERO DUP1 ISZERO PUSH2 0x50D JUMPI RETURNDATASIZE PUSH1 0x0 DUP1 RETURNDATACOPY RETURNDATASIZE PUSH1 0x0 REVERT JUMPDEST PUSH2 0x151F DUP2 PUSH1 0x0 JUMPDEST DUP2 PUSH2 0x1C0 ADD MLOAD MLOAD DUP2 LT ISZERO PUSH2 0x50D JUMPI PUSH1 0x0 DUP3 PUSH2 0x1C0 ADD MLOAD DUP3 DUP2 MLOAD DUP2 LT PUSH2 0x15A3 JUMPI PUSH2 0x15A3 PUSH2 0x1D39 JUMP JUMPDEST PUSH1 0x20 SWAP1 DUP2 MUL SWAP2 SWAP1 SWAP2 ADD DUP2 ADD MLOAD PUSH1 0x40 DUP1 DUP7 ADD MLOAD PUSH1 0x0 SWAP1 DUP2 MSTORE PUSH1 0x5 DUP5 MSTORE DUP2 DUP2 KECCAK256 PUSH1 0x1 PUSH1 0x1 PUSH1 0xA0 SHL SUB DUP5 AND DUP1 DUP4 MSTORE SWAP5 MSTORE DUP2 DUP2 KECCAK256 SLOAD SWAP2 MLOAD SWAP3 SWAP5 POP SWAP1 SWAP3 SWAP2 DUP4 ISZERO PUSH2 0x8FC MUL SWAP2 DUP5 SWAP2 SWAP1 DUP2 DUP2 DUP2 DUP6 DUP9 DUP9 CALL SWAP4 POP POP POP POP ISZERO DUP1 ISZERO PUSH2 0x1603 JUMPI RETURNDATASIZE PUSH1 0x0 DUP1 RETURNDATACOPY RETURNDATASIZE PUSH1 0x0 REVERT JUMPDEST POP POP POP DUP1 DUP1 PUSH2 0x1611 SWAP1 PUSH2 0x1C9B JUMP JUMPDEST SWAP2 POP POP PUSH2 0x157C JUMP JUMPDEST DUP3 DUP1 SLOAD PUSH2 0x1625 SWAP1 PUSH2 0x1D04 JUMP JUMPDEST SWAP1 PUSH1 0x0 MSTORE PUSH1 0x20 PUSH1 0x0 KECCAK256 SWAP1 PUSH1 0x1F ADD PUSH1 0x20 SWAP1 DIV DUP2 ADD SWAP3 DUP3 PUSH2 0x1647 JUMPI PUSH1 0x0 DUP6 SSTORE PUSH2 0x168D JUMP JUMPDEST DUP3 PUSH1 0x1F LT PUSH2 0x1660 JUMPI DUP1 MLOAD PUSH1 0xFF NOT AND DUP4 DUP1 ADD OR DUP6 SSTORE PUSH2 0x168D JUMP JUMPDEST DUP3 DUP1 ADD PUSH1 0x1 ADD DUP6 SSTORE DUP3 ISZERO PUSH2 0x168D JUMPI SWAP2 DUP3 ADD JUMPDEST DUP3 DUP2 GT ISZERO PUSH2 0x168D JUMPI DUP3 MLOAD DUP3 SSTORE SWAP2 PUSH1 0x20 ADD SWAP2 SWAP1 PUSH1 0x1 ADD SWAP1 PUSH2 0x1672 JUMP JUMPDEST POP PUSH2 0x1699 SWAP3 SWAP2 POP PUSH2 0x1784 JUMP JUMPDEST POP SWAP1 JUMP JUMPDEST DUP3 DUP1 SLOAD DUP3 DUP3 SSTORE SWAP1 PUSH1 0x0 MSTORE PUSH1 0x20 PUSH1 0x0 KECCAK256 SWAP1 DUP2 ADD SWAP3 DUP3 ISZERO PUSH2 0x168D JUMPI SWAP2 PUSH1 0x20 MUL DUP3 ADD JUMPDEST DUP3 DUP2 GT ISZERO PUSH2 0x168D JUMPI DUP3 MLOAD DUP3 SLOAD PUSH1 0x1 PUSH1 0x1 PUSH1 0xA0 SHL SUB NOT AND PUSH1 0x1 PUSH1 0x1 PUSH1 0xA0 SHL SUB SWAP1 SWAP2 AND OR DUP3 SSTORE PUSH1 0x20 SWAP1 SWAP3 ADD SWAP2 PUSH1 0x1 SWAP1 SWAP2 ADD SWAP1 PUSH2 0x16BD JUMP JUMPDEST PUSH1 0x40 MLOAD DUP1 PUSH2 0x1E0 ADD PUSH1 0x40 MSTORE DUP1 PUSH1 0x0 ISZERO ISZERO DUP2 MSTORE PUSH1 0x20 ADD PUSH1 0x0 PUSH1 0x1 PUSH1 0x1 PUSH1 0xA0 SHL SUB AND DUP2 MSTORE PUSH1 0x20 ADD PUSH1 0x0 DUP2 MSTORE PUSH1 0x20 ADD PUSH1 0x60 DUP2 MSTORE PUSH1 0x20 ADD PUSH1 0x60 DUP2 MSTORE PUSH1 0x20 ADD PUSH1 0x60 DUP2 MSTORE PUSH1 0x20 ADD PUSH1 0x60 DUP2 MSTORE PUSH1 0x20 ADD PUSH1 0x60 DUP2 MSTORE PUSH1 0x20 ADD PUSH1 0x60 DUP2 MSTORE PUSH1 0x20 ADD PUSH1 0x0 DUP2 MSTORE PUSH1 0x20 ADD PUSH1 0x0 DUP2 MSTORE PUSH1 0x20 ADD PUSH1 0x0 DUP2 MSTORE PUSH1 0x20 ADD PUSH1 0x0 DUP2 MSTORE PUSH1 0x20 ADD PUSH1 0x0 PUSH1 0x2 DUP2 GT ISZERO PUSH2 0x1777 JUMPI PUSH2 0x1777 PUSH2 0x1A41 JUMP JUMPDEST DUP2 MSTORE PUSH1 0x20 ADD PUSH1 0x60 DUP2 MSTORE POP SWAP1 JUMP JUMPDEST JUMPDEST DUP1 DUP3 GT ISZERO PUSH2 0x1699 JUMPI PUSH1 0x0 DUP2 SSTORE PUSH1 0x1 ADD PUSH2 0x1785 JUMP JUMPDEST PUSH4 0x4E487B71 PUSH1 0xE0 SHL PUSH1 0x0 MSTORE PUSH1 0x41 PUSH1 0x4 MSTORE PUSH1 0x24 PUSH1 0x0 REVERT JUMPDEST PUSH1 0x0 DUP3 PUSH1 0x1F DUP4 ADD SLT PUSH2 0x17C0 JUMPI PUSH1 0x0 DUP1 REVERT JUMPDEST DUP2 CALLDATALOAD PUSH8 0xFFFFFFFFFFFFFFFF DUP1 DUP3 GT ISZERO PUSH2 0x17DB JUMPI PUSH2 0x17DB PUSH2 0x1799 JUMP JUMPDEST PUSH1 0x40 MLOAD PUSH1 0x1F DUP4 ADD PUSH1 0x1F NOT SWAP1 DUP2 AND PUSH1 0x3F ADD AND DUP2 ADD SWAP1 DUP3 DUP3 GT DUP2 DUP4 LT OR ISZERO PUSH2 0x1803 JUMPI PUSH2 0x1803 PUSH2 0x1799 JUMP JUMPDEST DUP2 PUSH1 0x40 MSTORE DUP4 DUP2 MSTORE DUP7 PUSH1 0x20 DUP6 DUP9 ADD ADD GT ISZERO PUSH2 0x181C JUMPI PUSH1 0x0 DUP1 REVERT JUMPDEST DUP4 PUSH1 0x20 DUP8 ADD PUSH1 0x20 DUP4 ADD CALLDATACOPY PUSH1 0x0 PUSH1 0x20 DUP6 DUP4 ADD ADD MSTORE DUP1 SWAP5 POP POP POP POP POP SWAP3 SWAP2 POP POP JUMP JUMPDEST PUSH1 0x0 DUP1 PUSH1 0x0 DUP1 PUSH1 0x0 DUP1 PUSH1 0x0 DUP1 PUSH2 0x100 DUP10 DUP12 SUB SLT ISZERO PUSH2 0x1859 JUMPI PUSH1 0x0 DUP1 REVERT JUMPDEST DUP9 CALLDATALOAD SWAP8 POP PUSH1 0x20 DUP10 ADD CALLDATALOAD PUSH8 0xFFFFFFFFFFFFFFFF DUP1 DUP3 GT ISZERO PUSH2 0x1878 JUMPI PUSH1 0x0 DUP1 REVERT JUMPDEST PUSH2 0x1884 DUP13 DUP4 DUP14 ADD PUSH2 0x17AF JUMP JUMPDEST SWAP9 POP PUSH1 0x40 DUP12 ADD CALLDATALOAD SWAP2 POP DUP1 DUP3 GT ISZERO PUSH2 0x189A JUMPI PUSH1 0x0 DUP1 REVERT JUMPDEST PUSH2 0x18A6 DUP13 DUP4 DUP14 ADD PUSH2 0x17AF JUMP JUMPDEST SWAP8 POP PUSH1 0x60 DUP12 ADD CALLDATALOAD SWAP2 POP DUP1 DUP3 GT ISZERO PUSH2 0x18BC JUMPI PUSH1 0x0 DUP1 REVERT JUMPDEST PUSH2 0x18C8 DUP13 DUP4 DUP14 ADD PUSH2 0x17AF JUMP JUMPDEST SWAP7 POP PUSH1 0x80 DUP12 ADD CALLDATALOAD SWAP2 POP DUP1 DUP3 GT ISZERO PUSH2 0x18DE JUMPI PUSH1 0x0 DUP1 REVERT JUMPDEST PUSH2 0x18EA DUP13 DUP4 DUP14 ADD PUSH2 0x17AF JUMP JUMPDEST SWAP6 POP PUSH1 0xA0 DUP12 ADD CALLDATALOAD SWAP2 POP DUP1 DUP3 GT ISZERO PUSH2 0x1900 JUMPI PUSH1 0x0 DUP1 REVERT JUMPDEST PUSH2 0x190C DUP13 DUP4 DUP14 ADD PUSH2 0x17AF JUMP JUMPDEST SWAP5 POP PUSH1 0xC0 DUP12 ADD CALLDATALOAD SWAP2 POP DUP1 DUP3 GT ISZERO PUSH2 0x1922 JUMPI PUSH1 0x0 DUP1 REVERT JUMPDEST POP PUSH2 0x192F DUP12 DUP3 DUP13 ADD PUSH2 0x17AF JUMP JUMPDEST SWAP3 POP POP PUSH1 0xE0 DUP10 ADD CALLDATALOAD SWAP1 POP SWAP3 SWAP6 SWAP9 POP SWAP3 SWAP6 SWAP9 SWAP1 SWAP4 SWAP7 POP JUMP JUMPDEST PUSH1 0x0 DUP1 PUSH1 0x20 DUP4 DUP6 SUB SLT ISZERO PUSH2 0x1959 JUMPI PUSH1 0x0 DUP1 REVERT JUMPDEST DUP3 CALLDATALOAD PUSH8 0xFFFFFFFFFFFFFFFF DUP1 DUP3 GT ISZERO PUSH2 0x1971 JUMPI PUSH1 0x0 DUP1 REVERT JUMPDEST DUP2 DUP6 ADD SWAP2 POP DUP6 PUSH1 0x1F DUP4 ADD SLT PUSH2 0x1985 JUMPI PUSH1 0x0 DUP1 REVERT JUMPDEST DUP2 CALLDATALOAD DUP2 DUP2 GT ISZERO PUSH2 0x1994 JUMPI PUSH1 0x0 DUP1 REVERT JUMPDEST DUP7 PUSH1 0x20 DUP3 DUP6 ADD ADD GT ISZERO PUSH2 0x19A6 JUMPI PUSH1 0x0 DUP1 REVERT JUMPDEST PUSH1 0x20 SWAP3 SWAP1 SWAP3 ADD SWAP7 SWAP2 SWAP6 POP SWAP1 SWAP4 POP POP POP POP JUMP JUMPDEST PUSH1 0x0 DUP2 MLOAD DUP1 DUP5 MSTORE PUSH1 0x0 JUMPDEST DUP2 DUP2 LT ISZERO PUSH2 0x19DE JUMPI PUSH1 0x20 DUP2 DUP6 ADD DUP2 ADD MLOAD DUP7 DUP4 ADD DUP3 ADD MSTORE ADD PUSH2 0x19C2 JUMP JUMPDEST DUP2 DUP2 GT ISZERO PUSH2 0x19F0 JUMPI PUSH1 0x0 PUSH1 0x20 DUP4 DUP8 ADD ADD MSTORE JUMPDEST POP PUSH1 0x1F ADD PUSH1 0x1F NOT AND SWAP3 SWAP1 SWAP3 ADD PUSH1 0x20 ADD SWAP3 SWAP2 POP POP JUMP JUMPDEST DUP3 ISZERO ISZERO DUP2 MSTORE PUSH1 0x40 PUSH1 0x20 DUP3 ADD MSTORE PUSH1 0x0 PUSH2 0x1A20 PUSH1 0x40 DUP4 ADD DUP5 PUSH2 0x19B8 JUMP JUMPDEST SWAP5 SWAP4 POP POP POP POP JUMP JUMPDEST PUSH1 0x0 PUSH1 0x20 DUP3 DUP5 SUB SLT ISZERO PUSH2 0x1A3A JUMPI PUSH1 0x0 DUP1 REVERT JUMPDEST POP CALLDATALOAD SWAP2 SWAP1 POP JUMP JUMPDEST PUSH4 0x4E487B71 PUSH1 0xE0 SHL PUSH1 0x0 MSTORE PUSH1 0x21 PUSH1 0x4 MSTORE PUSH1 0x24 PUSH1 0x0 REVERT JUMPDEST PUSH1 0x3 DUP2 LT PUSH2 0x1A75 JUMPI PUSH4 0x4E487B71 PUSH1 0xE0 SHL PUSH1 0x0 MSTORE PUSH1 0x21 PUSH1 0x4 MSTORE PUSH1 0x24 PUSH1 0x0 REVERT JUMPDEST SWAP1 MSTORE JUMP JUMPDEST PUSH1 0x0 DUP2 MLOAD DUP1 DUP5 MSTORE PUSH1 0x20 DUP1 DUP6 ADD SWAP5 POP DUP1 DUP5 ADD PUSH1 0x0 JUMPDEST DUP4 DUP2 LT ISZERO PUSH2 0x1AB2 JUMPI DUP2 MLOAD PUSH1 0x1 PUSH1 0x1 PUSH1 0xA0 SHL SUB AND DUP8 MSTORE SWAP6 DUP3 ADD SWAP6 SWAP1 DUP3 ADD SWAP1 PUSH1 0x1 ADD PUSH2 0x1A8D JUMP JUMPDEST POP SWAP5 SWAP6 SWAP5 POP POP POP POP POP JUMP JUMPDEST DUP1 MLOAD ISZERO ISZERO DUP3 MSTORE PUSH1 0x0 PUSH2 0x1E0 PUSH1 0x20 DUP4 ADD MLOAD PUSH2 0x1AE2 PUSH1 0x20 DUP7 ADD DUP3 PUSH1 0x1 PUSH1 0x1 PUSH1 0xA0 SHL SUB AND SWAP1 MSTORE JUMP JUMPDEST POP PUSH1 0x40 DUP4 ADD MLOAD PUSH1 0x40 DUP6 ADD MSTORE PUSH1 0x60 DUP4 ADD MLOAD DUP2 PUSH1 0x60 DUP7 ADD MSTORE PUSH2 0x1B04 DUP3 DUP7 ADD DUP3 PUSH2 0x19B8 JUMP JUMPDEST SWAP2 POP POP PUSH1 0x80 DUP4 ADD MLOAD DUP5 DUP3 SUB PUSH1 0x80 DUP7 ADD MSTORE PUSH2 0x1B1E DUP3 DUP3 PUSH2 0x19B8 JUMP JUMPDEST SWAP2 POP POP PUSH1 0xA0 DUP4 ADD MLOAD DUP5 DUP3 SUB PUSH1 0xA0 DUP7 ADD MSTORE PUSH2 0x1B38 DUP3 DUP3 PUSH2 0x19B8 JUMP JUMPDEST SWAP2 POP POP PUSH1 0xC0 DUP4 ADD MLOAD DUP5 DUP3 SUB PUSH1 0xC0 DUP7 ADD MSTORE PUSH2 0x1B52 DUP3 DUP3 PUSH2 0x19B8 JUMP JUMPDEST SWAP2 POP POP PUSH1 0xE0 DUP4 ADD MLOAD DUP5 DUP3 SUB PUSH1 0xE0 DUP7 ADD MSTORE PUSH2 0x1B6C DUP3 DUP3 PUSH2 0x19B8 JUMP JUMPDEST SWAP2 POP POP PUSH2 0x100 DUP1 DUP5 ADD MLOAD DUP6 DUP4 SUB DUP3 DUP8 ADD MSTORE PUSH2 0x1B87 DUP4 DUP3 PUSH2 0x19B8 JUMP JUMPDEST PUSH2 0x120 DUP7 DUP2 ADD MLOAD SWAP1 DUP9 ADD MSTORE PUSH2 0x140 DUP1 DUP8 ADD MLOAD SWAP1 DUP9 ADD MSTORE PUSH2 0x160 DUP1 DUP8 ADD MLOAD SWAP1 DUP9 ADD MSTORE PUSH2 0x180 DUP1 DUP8 ADD MLOAD SWAP1 DUP9 ADD MSTORE PUSH2 0x1A0 DUP1 DUP8 ADD MLOAD SWAP2 SWAP5 POP SWAP3 POP SWAP1 POP PUSH2 0x1BCD DUP3 DUP8 ADD DUP3 PUSH2 0x1A57 JUMP JUMPDEST POP POP PUSH2 0x1C0 DUP1 DUP5 ADD MLOAD DUP6 DUP4 SUB DUP3 DUP8 ADD MSTORE PUSH2 0x1BE7 DUP4 DUP3 PUSH2 0x1A79 JUMP JUMPDEST SWAP7 SWAP6 POP POP POP POP POP POP JUMP JUMPDEST PUSH1 0x0 PUSH1 0x20 DUP1 DUP4 ADD DUP2 DUP5 MSTORE DUP1 DUP6 MLOAD DUP1 DUP4 MSTORE PUSH1 0x40 DUP7 ADD SWAP2 POP PUSH1 0x40 DUP2 PUSH1 0x5 SHL DUP8 ADD ADD SWAP3 POP DUP4 DUP8 ADD PUSH1 0x0 JUMPDEST DUP3 DUP2 LT ISZERO PUSH2 0x1C46 JUMPI PUSH1 0x3F NOT DUP9 DUP7 SUB ADD DUP5 MSTORE PUSH2 0x1C34 DUP6 DUP4 MLOAD PUSH2 0x1ABD JUMP JUMPDEST SWAP5 POP SWAP3 DUP6 ADD SWAP3 SWAP1 DUP6 ADD SWAP1 PUSH1 0x1 ADD PUSH2 0x1C18 JUMP JUMPDEST POP SWAP3 SWAP8 SWAP7 POP POP POP POP POP POP POP JUMP JUMPDEST PUSH1 0x20 DUP2 MSTORE PUSH1 0x0 PUSH2 0x1C66 PUSH1 0x20 DUP4 ADD DUP5 PUSH2 0x1ABD JUMP JUMPDEST SWAP4 SWAP3 POP POP POP JUMP JUMPDEST PUSH4 0x4E487B71 PUSH1 0xE0 SHL PUSH1 0x0 MSTORE PUSH1 0x11 PUSH1 0x4 MSTORE PUSH1 0x24 PUSH1 0x0 REVERT JUMPDEST PUSH1 0x0 DUP3 NOT DUP3 GT ISZERO PUSH2 0x1C96 JUMPI PUSH2 0x1C96 PUSH2 0x1C6D JUMP JUMPDEST POP ADD SWAP1 JUMP JUMPDEST PUSH1 0x0 PUSH1 0x0 NOT DUP3 EQ ISZERO PUSH2 0x1CAF JUMPI PUSH2 0x1CAF PUSH2 0x1C6D JUMP JUMPDEST POP PUSH1 0x1 ADD SWAP1 JUMP JUMPDEST PUSH1 0x0 DUP3 DUP3 LT ISZERO PUSH2 0x1CC8 JUMPI PUSH2 0x1CC8 PUSH2 0x1C6D JUMP JUMPDEST POP SUB SWAP1 JUMP JUMPDEST PUSH1 0x20 DUP1 DUP3 MSTORE PUSH1 0x17 SWAP1 DUP3 ADD MSTORE PUSH32 0x50726F6A65637420646F6573206E6F742065786973742E000000000000000000 PUSH1 0x40 DUP3 ADD MSTORE PUSH1 0x60 ADD SWAP1 JUMP JUMPDEST PUSH1 0x1 DUP2 DUP2 SHR SWAP1 DUP3 AND DUP1 PUSH2 0x1D18 JUMPI PUSH1 0x7F DUP3 AND SWAP2 POP JUMPDEST PUSH1 0x20 DUP3 LT DUP2 EQ ISZERO PUSH2 0xBB5 JUMPI PUSH4 0x4E487B71 PUSH1 0xE0 SHL PUSH1 0x0 MSTORE PUSH1 0x22 PUSH1 0x4 MSTORE PUSH1 0x24 PUSH1 0x0 REVERT JUMPDEST PUSH4 0x4E487B71 PUSH1 0xE0 SHL PUSH1 0x0 MSTORE PUSH1 0x32 PUSH1 0x4 MSTORE PUSH1 0x24 PUSH1 0x0 REVERT INVALID LOG2 PUSH5 0x6970667358 0x22 SLT KECCAK256 RETURNDATACOPY 0xDB 0xE5 0x5C 0xB4 LOG1 0xC 0x21 0xE2 SIGNEXTEND 0xAC 0x2A 0xB0 DELEGATECALL 0xCB PUSH12 0xE3A94AF0B206A750B6F59F38 PUSH19 0xF58B0F64736F6C634300080900330000000000 ",
  "sha1": "d4f1856b7b2462562316287c9650879bdb4d1b38",
  "source": "pragma solidity ^0.8.0;\nimport \"../interfaces/KeeperCompatibleInterface.sol\";\n\ncontract EtherCrowd is KeeperCompatibleInterface {\n    uint public nbOfProjects;\n    address admin;\n\n    uint public checkInterval;\n    uint public lastCheck;\n\n    mapping(uint => Project) private idToProject;\n\n    // crowdsale id,  user address to amount invested by user address TODO: balance of function\n    mapping(uint => mapping(address => uint))\n        private idToBalanceOfContributors;\n\n    // user address to list of crowdsales ids he is invested in\n    mapping(address => uint[]) private addressToListOfProjects;\n\n    uint public fee; //TODO: implement change fe function\n\n    constructor(uint _fee, uint _checkInterval) {\n        nbOfProjects = 0;\n        admin = msg.sender;\n        fee = _fee;\n        checkInterval = _checkInterval;\n        lastCheck = 0;\n    }\n    enum Status { NOT_ACTIVE, ACTIVE, ENDED }\n\n    struct Project {\n        bool initialized;\n        address owner;\n        uint id;\n        string title;\n        string slogan;\n        string description;\n        string websiteUrl;\n        string thumbnailUrl;\n        string videoUrl;\n        uint currentAmount;\n        uint goalAmount;\n        //TODO implement themes\n\n        uint startDate; // TODO: implement\n        uint endDate;\n        Status status;\n        address[] contributors;\n    }\n\n    function createProject(\n        uint _goalAmount,\n        string memory _title,\n        string memory _slogan,\n        string memory _websiteUrl,\n        string memory _videoUrl,\n        string memory _thumbnailUrl,\n        string memory _description,\n        //  no need to specify start date, it is the time at which the user calls the function\n        uint _endDate\n    ) external payable {\n        require(_goalAmount > 0, \"Goal amount must be greater than zero.\");\n        require(_endDate > 0, \"End date has to be after start date.\");\n        //require(idToCrowdsale[nbOfProjects].id != 0, \"Crowdsale id already exists\"); // if two crowdsales are created at the same time and thus get the same id\n\n        // Payment to list on EtherCrowd\n        // Person has to send the exact fee with the function call, otherwise the transaction will be reverted\n        if (msg.value != fee) {\n            revert(\"Incorrect value\");\n        }\n\n        address[] memory _contributors; // creating a empty array\n\n        idToProject[nbOfProjects] = Project(\n            true, // Crowdsale is initialized\n            msg.sender,\n            nbOfProjects, // is it necessary to repead the id here?\n            _title,\n            _slogan,\n            _description,\n            _websiteUrl,\n            _thumbnailUrl,\n            _videoUrl,\n            0, // current amount 0\n            _goalAmount,\n            block.timestamp, // start date\n            block.timestamp + _endDate,\n            Status.ACTIVE, // Project is active by default, later implementation will make possible an activation at a later date\n            _contributors\n        );\n\n        nbOfProjects++; // incrementing the current id\n\n        // maybe returning the id of the crowdsale?\n    }\n\n    modifier projectExist(uint _id) {\n        require(\n            idToProject[_id].initialized == true,\n            \"Project does not exist.\"\n        );\n        _;\n    }\n\n    /**\n     * @dev Gets the project of the given id.\n     * @param _id The id of the project.\n     * @return project The project.\n     */\n    function getProject(uint _id) external view projectExist(_id) returns (Project memory) {\n        Project memory project = idToProject[_id];\n\n        return (project);\n    }\n\n\n    //TODO Maybe return only active and not started project.\n    /**\n     * @dev Gets all the projects (not_started, active or ended).\n     * @return projects a list of projects.\n     */\n    function getProjects() external view returns (Project[] memory) {\n        Project[] memory projects = new Project[](nbOfProjects);\n\n        for (uint i = 0; i < nbOfProjects; i++) {\n            projects[i] = idToProject[i];\n        }\n        return projects;\n    }\n\n    // ChainLink UpKeep part, maybe putting it in another file?\n\n    function checkUpkeep(\n        bytes calldata /*checkData*/\n    )\n        external\n        view\n        override\n        returns (\n            bool upkeepNeeded,\n            bytes memory /*performData*/\n        )\n    {\n        // This function will be executed Off chain by the Keeper node, this is why the computation is done here in order to save on gas fees\n        upkeepNeeded = (block.timestamp - lastCheck) > checkInterval;\n        // We don't use the checkData in this example. The checkData is defined when the Upkeep was registered.\n    }\n\n    function performUpkeep(\n        bytes calldata /*performData*/\n    ) external override {\n        lastCheck = block.timestamp;\n        checkProjects();\n\n        // We don't use the performData in this example. The performData is generated by the Keeper's call to your checkUpkeep function\n    }\n\n    function checkProjects() private {\n        for (uint i = 0; i < nbOfProjects; i++) {\n            // looping through all the crowdsales\n            Project memory project = idToProject[i];\n            if (block.timestamp >= project.endDate) {\n                // It means the crowdsale has ended\n                endProject(project);\n            }\n        }\n    }\n\n    function endProject(Project memory _project) private {\n        // TODO: Emit events\n        // Project has ended, refund the money or give it to the owner according to the situation\n        if (_project.currentAmount >= _project.goalAmount) {\n            // The crowdsale is successful, we can transfer the money to the owner\n            payable(_project.owner).transfer(_project.currentAmount);\n        } else {\n            // refunding the investors\n            refund(_project);\n        }\n    }\n\n    function refund(Project memory _project) private {\n        for (uint i = 0; i < _project.contributors.length; i++) {\n            address contributorAddress = _project.contributors[i];\n            uint refundAmount = idToBalanceOfContributors[_project.id][\n                contributorAddress\n            ];\n\n            payable(contributorAddress).transfer(refundAmount);\n        }\n    }\n\n    /** \n    Function fund, fund a crowd,\n    takes a crowdid in parameter\n    */\n    function fund(uint _projectId) external payable {\n        require(msg.value > 0, \"No value sent.\");\n        require(idToProject[_projectId].initialized, \"Project does not exist.\");\n        require(idToProject[_projectId].status == Status.ACTIVE, \"Project is not active\");\n\n        addressToListOfProjects[msg.sender].push(_projectId);\n        idToBalanceOfContributors[_projectId][msg.sender] += msg.value;\n    }\n\n    function getInvestedFunds(uint _projectId)\n        public\n        view\n        returns (uint balance)\n    {\n        require(idToProject[_projectId].initialized, \"Project does not exist.\");\n        return idToBalanceOfContributors[_projectId][msg.sender];\n    }\n}\n",
  "sourcePath": "contracts/EtherCrowd.sol",
  "type": "contract"
}